{
	"contracts/FundMe.sol": {
		"FundMe": {
			"abi": [
				{
					"inputs": [],
					"stateMutability": "nonpayable",
					"type": "constructor"
				},
				{
					"inputs": [],
					"name": "notOwner",
					"type": "error"
				},
				{
					"stateMutability": "payable",
					"type": "fallback"
				},
				{
					"inputs": [],
					"name": "MINIMUM_USD",
					"outputs": [
						{
							"internalType": "uint256",
							"name": "",
							"type": "uint256"
						}
					],
					"stateMutability": "view",
					"type": "function"
				},
				{
					"inputs": [
						{
							"internalType": "address",
							"name": "",
							"type": "address"
						}
					],
					"name": "amount",
					"outputs": [
						{
							"internalType": "uint256",
							"name": "",
							"type": "uint256"
						}
					],
					"stateMutability": "view",
					"type": "function"
				},
				{
					"inputs": [],
					"name": "fund",
					"outputs": [],
					"stateMutability": "payable",
					"type": "function"
				},
				{
					"inputs": [
						{
							"internalType": "uint256",
							"name": "",
							"type": "uint256"
						}
					],
					"name": "funders",
					"outputs": [
						{
							"internalType": "address",
							"name": "",
							"type": "address"
						}
					],
					"stateMutability": "view",
					"type": "function"
				},
				{
					"inputs": [
						{
							"internalType": "uint256",
							"name": "ethAmount",
							"type": "uint256"
						}
					],
					"name": "getConversion",
					"outputs": [
						{
							"internalType": "uint256",
							"name": "",
							"type": "uint256"
						}
					],
					"stateMutability": "view",
					"type": "function"
				},
				{
					"inputs": [],
					"name": "getPrice",
					"outputs": [
						{
							"internalType": "uint256",
							"name": "",
							"type": "uint256"
						}
					],
					"stateMutability": "view",
					"type": "function"
				},
				{
					"inputs": [],
					"name": "getVersion",
					"outputs": [
						{
							"internalType": "uint256",
							"name": "",
							"type": "uint256"
						}
					],
					"stateMutability": "view",
					"type": "function"
				},
				{
					"inputs": [],
					"name": "i_owner",
					"outputs": [
						{
							"internalType": "address",
							"name": "",
							"type": "address"
						}
					],
					"stateMutability": "view",
					"type": "function"
				},
				{
					"inputs": [],
					"name": "withdraw",
					"outputs": [],
					"stateMutability": "nonpayable",
					"type": "function"
				},
				{
					"stateMutability": "payable",
					"type": "receive"
				}
			],
			"devdoc": {
				"kind": "dev",
				"methods": {},
				"version": 1
			},
			"evm": {
				"assembly": "    /* \"contracts/FundMe.sol\":257:2452  contract FundMe{... */\n  mstore(0x40, 0xa0)\n    /* \"contracts/FundMe.sol\":491:543  constructor(){... */\n  callvalue\n  dup1\n  iszero\n  tag_1\n  jumpi\n  revert(0x00, 0x00)\ntag_1:\n  pop\n    /* \"contracts/FundMe.sol\":525:535  msg.sender */\n  caller\n    /* \"contracts/FundMe.sol\":515:535  i_owner = msg.sender */\n  0xffffffffffffffffffffffffffffffffffffffff\n  and\n  0x80\n  dup2\n  0xffffffffffffffffffffffffffffffffffffffff\n  and\n  dup2\n  mstore\n  pop\n  pop\n    /* \"contracts/FundMe.sol\":257:2452  contract FundMe{... */\n  mload(0x80)\n  codecopy(0x00, dataOffset(sub_0), dataSize(sub_0))\n  0x00\n  assignImmutable(\"0x4569971f3d79dc8da7f8a6820be6cb8dc4a52bb0df6599b2aae7182111b63cd5\")\n  return(0x00, dataSize(sub_0))\nstop\n\nsub_0: assembly {\n        /* \"contracts/FundMe.sol\":257:2452  contract FundMe{... */\n      mstore(0x40, 0x80)\n      jumpi(tag_1, lt(calldatasize, 0x04))\n      shr(0xe0, calldataload(0x00))\n      dup1\n      0x98d5fdca\n      gt\n      tag_12\n      jumpi\n      dup1\n      0x98d5fdca\n      eq\n      tag_7\n      jumpi\n      dup1\n      0xb60d4288\n      eq\n      tag_8\n      jumpi\n      dup1\n      0xb9f0bf66\n      eq\n      tag_9\n      jumpi\n      dup1\n      0xdba6335f\n      eq\n      tag_10\n      jumpi\n      dup1\n      0xdc0d3dff\n      eq\n      tag_11\n      jumpi\n      jump(tag_2)\n    tag_12:\n      dup1\n      0x047abed7\n      eq\n      tag_3\n      jumpi\n      dup1\n      0x0d8e6e2c\n      eq\n      tag_4\n      jumpi\n      dup1\n      0x3ccfd60b\n      eq\n      tag_5\n      jumpi\n      dup1\n      0x6b69a592\n      eq\n      tag_6\n      jumpi\n      jump(tag_2)\n    tag_1:\n      jumpi(tag_2, calldatasize)\n        /* \"contracts/FundMe.sol\":1557:1563  fund() */\n      tag_15\n        /* \"contracts/FundMe.sol\":1557:1561  fund */\n      tag_16\n        /* \"contracts/FundMe.sol\":1557:1563  fund() */\n      jump\t// in\n    tag_15:\n        /* \"contracts/FundMe.sol\":257:2452  contract FundMe{... */\n      stop\n    tag_2:\n        /* \"contracts/FundMe.sol\":1617:1623  fund() */\n      tag_19\n        /* \"contracts/FundMe.sol\":1617:1621  fund */\n      tag_16\n        /* \"contracts/FundMe.sol\":1617:1623  fund() */\n      jump\t// in\n    tag_19:\n        /* \"contracts/FundMe.sol\":257:2452  contract FundMe{... */\n      stop\n        /* \"contracts/FundMe.sol\":2242:2449  function getConversion(uint256 ethAmount) public view returns(uint256){... */\n    tag_3:\n      callvalue\n      dup1\n      iszero\n      tag_20\n      jumpi\n      revert(0x00, 0x00)\n    tag_20:\n      pop\n      tag_21\n      0x04\n      dup1\n      calldatasize\n      sub\n      dup2\n      add\n      swap1\n      tag_22\n      swap2\n      swap1\n      tag_23\n      jump\t// in\n    tag_22:\n      tag_24\n      jump\t// in\n    tag_21:\n      mload(0x40)\n      tag_25\n      swap2\n      swap1\n      tag_26\n      jump\t// in\n    tag_25:\n      mload(0x40)\n      dup1\n      swap2\n      sub\n      swap1\n      return\n        /* \"contracts/FundMe.sol\":2083:2234  function getVersion() public view returns(uint256){... */\n    tag_4:\n      callvalue\n      dup1\n      iszero\n      tag_27\n      jumpi\n      revert(0x00, 0x00)\n    tag_27:\n      pop\n      tag_28\n      tag_29\n      jump\t// in\n    tag_28:\n      mload(0x40)\n      tag_30\n      swap2\n      swap1\n      tag_26\n      jump\t// in\n    tag_30:\n      mload(0x40)\n      dup1\n      swap2\n      sub\n      swap1\n      return\n        /* \"contracts/FundMe.sol\":756:1157  function withdraw() public onlyOwner{... */\n    tag_5:\n      callvalue\n      dup1\n      iszero\n      tag_31\n      jumpi\n      revert(0x00, 0x00)\n    tag_31:\n      pop\n      tag_32\n      tag_33\n      jump\t// in\n    tag_32:\n      stop\n        /* \"contracts/FundMe.sol\":321:363  uint256 public constant MINIMUM_USD = 1e18 */\n    tag_6:\n      callvalue\n      dup1\n      iszero\n      tag_34\n      jumpi\n      revert(0x00, 0x00)\n    tag_34:\n      pop\n      tag_35\n      tag_36\n      jump\t// in\n    tag_35:\n      mload(0x40)\n      tag_37\n      swap2\n      swap1\n      tag_26\n      jump\t// in\n    tag_37:\n      mload(0x40)\n      dup1\n      swap2\n      sub\n      swap1\n      return\n        /* \"contracts/FundMe.sol\":1638:2077  function getPrice() public view returns (uint256) {... */\n    tag_7:\n      callvalue\n      dup1\n      iszero\n      tag_38\n      jumpi\n      revert(0x00, 0x00)\n    tag_38:\n      pop\n      tag_39\n      tag_40\n      jump\t// in\n    tag_39:\n      mload(0x40)\n      tag_41\n      swap2\n      swap1\n      tag_26\n      jump\t// in\n    tag_41:\n      mload(0x40)\n      dup1\n      swap2\n      sub\n      swap1\n      return\n        /* \"contracts/FundMe.sol\":551:748  function fund() public payable{... */\n    tag_8:\n      tag_42\n      tag_16\n      jump\t// in\n    tag_42:\n      stop\n        /* \"contracts/FundMe.sol\":401:443  mapping (address => uint256) public amount */\n    tag_9:\n      callvalue\n      dup1\n      iszero\n      tag_43\n      jumpi\n      revert(0x00, 0x00)\n    tag_43:\n      pop\n      tag_44\n      0x04\n      dup1\n      calldatasize\n      sub\n      dup2\n      add\n      swap1\n      tag_45\n      swap2\n      swap1\n      tag_46\n      jump\t// in\n    tag_45:\n      tag_47\n      jump\t// in\n    tag_44:\n      mload(0x40)\n      tag_48\n      swap2\n      swap1\n      tag_26\n      jump\t// in\n    tag_48:\n      mload(0x40)\n      dup1\n      swap2\n      sub\n      swap1\n      return\n        /* \"contracts/FundMe.sol\":450:482  address public immutable i_owner */\n    tag_10:\n      callvalue\n      dup1\n      iszero\n      tag_49\n      jumpi\n      revert(0x00, 0x00)\n    tag_49:\n      pop\n      tag_50\n      tag_51\n      jump\t// in\n    tag_50:\n      mload(0x40)\n      tag_52\n      swap2\n      swap1\n      tag_53\n      jump\t// in\n    tag_52:\n      mload(0x40)\n      dup1\n      swap2\n      sub\n      swap1\n      return\n        /* \"contracts/FundMe.sol\":370:394  address[] public funders */\n    tag_11:\n      callvalue\n      dup1\n      iszero\n      tag_54\n      jumpi\n      revert(0x00, 0x00)\n    tag_54:\n      pop\n      tag_55\n      0x04\n      dup1\n      calldatasize\n      sub\n      dup2\n      add\n      swap1\n      tag_56\n      swap2\n      swap1\n      tag_23\n      jump\t// in\n    tag_56:\n      tag_57\n      jump\t// in\n    tag_55:\n      mload(0x40)\n      tag_58\n      swap2\n      swap1\n      tag_53\n      jump\t// in\n    tag_58:\n      mload(0x40)\n      dup1\n      swap2\n      sub\n      swap1\n      return\n        /* \"contracts/FundMe.sol\":551:748  function fund() public payable{... */\n    tag_16:\n        /* \"contracts/FundMe.sol\":359:363  1e18 */\n      0x0de0b6b3a7640000\n        /* \"contracts/FundMe.sol\":600:624  getConversion(msg.value) */\n      tag_60\n        /* \"contracts/FundMe.sol\":614:623  msg.value */\n      callvalue\n        /* \"contracts/FundMe.sol\":600:613  getConversion */\n      tag_24\n        /* \"contracts/FundMe.sol\":600:624  getConversion(msg.value) */\n      jump\t// in\n    tag_60:\n        /* \"contracts/FundMe.sol\":600:637  getConversion(msg.value) >MINIMUM_USD */\n      gt\n        /* \"contracts/FundMe.sol\":592:663  require(getConversion(msg.value) >MINIMUM_USD,\"No minimum amount sent\") */\n      tag_61\n      jumpi\n      mload(0x40)\n      0x08c379a000000000000000000000000000000000000000000000000000000000\n      dup2\n      mstore\n      0x04\n      add\n      tag_62\n      swap1\n      tag_63\n      jump\t// in\n    tag_62:\n      mload(0x40)\n      dup1\n      swap2\n      sub\n      swap1\n      revert\n    tag_61:\n        /* \"contracts/FundMe.sol\":674:681  funders */\n      0x00\n        /* \"contracts/FundMe.sol\":687:697  msg.sender */\n      caller\n        /* \"contracts/FundMe.sol\":674:698  funders.push(msg.sender) */\n      swap1\n      dup1\n      0x01\n      dup2\n      sload\n      add\n      dup1\n      dup3\n      sstore\n      dup1\n      swap2\n      pop\n      pop\n      0x01\n      swap1\n      sub\n      swap1\n      0x00\n      mstore\n      keccak256(0x00, 0x20)\n      add\n      0x00\n      swap1\n      swap2\n      swap1\n      swap2\n      swap1\n      swap2\n      0x0100\n      exp\n      dup2\n      sload\n      dup2\n      0xffffffffffffffffffffffffffffffffffffffff\n      mul\n      not\n      and\n      swap1\n      dup4\n      0xffffffffffffffffffffffffffffffffffffffff\n      and\n      mul\n      or\n      swap1\n      sstore\n      pop\n        /* \"contracts/FundMe.sol\":731:740  msg.value */\n      callvalue\n        /* \"contracts/FundMe.sol\":709:715  amount */\n      0x01\n        /* \"contracts/FundMe.sol\":709:727  amount[msg.sender] */\n      0x00\n        /* \"contracts/FundMe.sol\":716:726  msg.sender */\n      caller\n        /* \"contracts/FundMe.sol\":709:727  amount[msg.sender] */\n      0xffffffffffffffffffffffffffffffffffffffff\n      and\n      0xffffffffffffffffffffffffffffffffffffffff\n      and\n      dup2\n      mstore\n      0x20\n      add\n      swap1\n      dup2\n      mstore\n      0x20\n      add\n      0x00\n      keccak256\n      0x00\n        /* \"contracts/FundMe.sol\":709:740  amount[msg.sender] += msg.value */\n      dup3\n      dup3\n      sload\n      tag_65\n      swap2\n      swap1\n      tag_66\n      jump\t// in\n    tag_65:\n      swap3\n      pop\n      pop\n      dup2\n      swap1\n      sstore\n      pop\n        /* \"contracts/FundMe.sol\":551:748  function fund() public payable{... */\n      jump\t// out\n        /* \"contracts/FundMe.sol\":2242:2449  function getConversion(uint256 ethAmount) public view returns(uint256){... */\n    tag_24:\n        /* \"contracts/FundMe.sol\":2304:2311  uint256 */\n      0x00\n        /* \"contracts/FundMe.sol\":2323:2339  uint256 ethPrice */\n      0x00\n        /* \"contracts/FundMe.sol\":2342:2352  getPrice() */\n      tag_68\n        /* \"contracts/FundMe.sol\":2342:2350  getPrice */\n      tag_40\n        /* \"contracts/FundMe.sol\":2342:2352  getPrice() */\n      jump\t// in\n    tag_68:\n        /* \"contracts/FundMe.sol\":2323:2352  uint256 ethPrice = getPrice() */\n      swap1\n      pop\n        /* \"contracts/FundMe.sol\":2363:2383  uint256 ethAmountUSD */\n      0x00\n        /* \"contracts/FundMe.sol\":2407:2411  1e18 */\n      0x0de0b6b3a7640000\n        /* \"contracts/FundMe.sol\":2397:2406  ethAmount */\n      dup5\n        /* \"contracts/FundMe.sol\":2386:2394  ethPrice */\n      dup4\n        /* \"contracts/FundMe.sol\":2386:2406  ethPrice * ethAmount */\n      tag_69\n      swap2\n      swap1\n      tag_70\n      jump\t// in\n    tag_69:\n        /* \"contracts/FundMe.sol\":2386:2411  ethPrice * ethAmount/1e18 */\n      tag_71\n      swap2\n      swap1\n      tag_72\n      jump\t// in\n    tag_71:\n        /* \"contracts/FundMe.sol\":2363:2411  uint256 ethAmountUSD = ethPrice * ethAmount/1e18 */\n      swap1\n      pop\n        /* \"contracts/FundMe.sol\":2429:2441  ethAmountUSD */\n      dup1\n        /* \"contracts/FundMe.sol\":2422:2441  return ethAmountUSD */\n      swap3\n      pop\n      pop\n      pop\n        /* \"contracts/FundMe.sol\":2242:2449  function getConversion(uint256 ethAmount) public view returns(uint256){... */\n      swap2\n      swap1\n      pop\n      jump\t// out\n        /* \"contracts/FundMe.sol\":2083:2234  function getVersion() public view returns(uint256){... */\n    tag_29:\n        /* \"contracts/FundMe.sol\":2125:2132  uint256 */\n      0x00\n        /* \"contracts/FundMe.sol\":2173:2215  0xfEefF7c3fB57d18C5C6Cdd71e45D2D0b4F9377bF */\n      0xfeeff7c3fb57d18c5c6cdd71e45d2d0b4f9377bf\n        /* \"contracts/FundMe.sol\":2151:2224  AggregatorV3Interface(0xfEefF7c3fB57d18C5C6Cdd71e45D2D0b4F9377bF).version */\n      0xffffffffffffffffffffffffffffffffffffffff\n      and\n      0x54fd4d50\n        /* \"contracts/FundMe.sol\":2151:2226  AggregatorV3Interface(0xfEefF7c3fB57d18C5C6Cdd71e45D2D0b4F9377bF).version() */\n      mload(0x40)\n      dup2\n      0xffffffff\n      and\n      0xe0\n      shl\n      dup2\n      mstore\n      0x04\n      add\n      0x20\n      mload(0x40)\n      dup1\n      dup4\n      sub\n      dup2\n      dup7\n      gas\n      staticcall\n      iszero\n      dup1\n      iszero\n      tag_75\n      jumpi\n      returndatacopy(0x00, 0x00, returndatasize)\n      revert(0x00, returndatasize)\n    tag_75:\n      pop\n      pop\n      pop\n      pop\n      mload(0x40)\n      returndatasize\n      not(0x1f)\n      0x1f\n      dup3\n      add\n      and\n      dup3\n      add\n      dup1\n      0x40\n      mstore\n      pop\n      dup2\n      add\n      swap1\n      tag_76\n      swap2\n      swap1\n      tag_77\n      jump\t// in\n    tag_76:\n        /* \"contracts/FundMe.sol\":2144:2226  return AggregatorV3Interface(0xfEefF7c3fB57d18C5C6Cdd71e45D2D0b4F9377bF).version() */\n      swap1\n      pop\n        /* \"contracts/FundMe.sol\":2083:2234  function getVersion() public view returns(uint256){... */\n      swap1\n      jump\t// out\n        /* \"contracts/FundMe.sol\":756:1157  function withdraw() public onlyOwner{... */\n    tag_33:\n        /* \"contracts/FundMe.sol\":1288:1295  i_owner */\n      immutable(\"0x4569971f3d79dc8da7f8a6820be6cb8dc4a52bb0df6599b2aae7182111b63cd5\")\n        /* \"contracts/FundMe.sol\":1274:1295  msg.sender == i_owner */\n      0xffffffffffffffffffffffffffffffffffffffff\n      and\n        /* \"contracts/FundMe.sol\":1274:1284  msg.sender */\n      caller\n        /* \"contracts/FundMe.sol\":1274:1295  msg.sender == i_owner */\n      0xffffffffffffffffffffffffffffffffffffffff\n      and\n      sub\n        /* \"contracts/FundMe.sol\":1271:1327  if(msg.sender == i_owner)... */\n      tag_79\n      jumpi\n        /* \"contracts/FundMe.sol\":1317:1327  notOwner() */\n      mload(0x40)\n      0x251c9d6300000000000000000000000000000000000000000000000000000000\n      dup2\n      mstore\n      0x04\n      add\n      mload(0x40)\n      dup1\n      swap2\n      sub\n      swap1\n      revert\n        /* \"contracts/FundMe.sol\":1271:1327  if(msg.sender == i_owner)... */\n    tag_79:\n        /* \"contracts/FundMe.sol\":848:857  uint256 i */\n      0x00\n        /* \"contracts/FundMe.sol\":858:859  0 */\n      0x00\n        /* \"contracts/FundMe.sol\":848:859  uint256 i=0 */\n      swap1\n      pop\n        /* \"contracts/FundMe.sol\":844:968  for(uint256 i=0;i<funders.length;i++){... */\n    tag_81:\n        /* \"contracts/FundMe.sol\":862:869  funders */\n      0x00\n        /* \"contracts/FundMe.sol\":862:876  funders.length */\n      dup1\n      sload\n      swap1\n      pop\n        /* \"contracts/FundMe.sol\":860:861  i */\n      dup2\n        /* \"contracts/FundMe.sol\":860:876  i<funders.length */\n      lt\n        /* \"contracts/FundMe.sol\":844:968  for(uint256 i=0;i<funders.length;i++){... */\n      iszero\n      tag_82\n      jumpi\n        /* \"contracts/FundMe.sol\":896:910  address funder */\n      0x00\n        /* \"contracts/FundMe.sol\":913:920  funders */\n      0x00\n        /* \"contracts/FundMe.sol\":921:922  i */\n      dup3\n        /* \"contracts/FundMe.sol\":913:923  funders[i] */\n      dup2\n      sload\n      dup2\n      lt\n      tag_84\n      jumpi\n      tag_85\n      tag_86\n      jump\t// in\n    tag_85:\n    tag_84:\n      swap1\n      0x00\n      mstore\n      keccak256(0x00, 0x20)\n      add\n      0x00\n      swap1\n      sload\n      swap1\n      0x0100\n      exp\n      swap1\n      div\n      0xffffffffffffffffffffffffffffffffffffffff\n      and\n        /* \"contracts/FundMe.sol\":896:923  address funder = funders[i] */\n      swap1\n      pop\n        /* \"contracts/FundMe.sol\":955:956  0 */\n      0x00\n        /* \"contracts/FundMe.sol\":938:944  amount */\n      0x01\n        /* \"contracts/FundMe.sol\":938:952  amount[funder] */\n      0x00\n        /* \"contracts/FundMe.sol\":945:951  funder */\n      dup4\n        /* \"contracts/FundMe.sol\":938:952  amount[funder] */\n      0xffffffffffffffffffffffffffffffffffffffff\n      and\n      0xffffffffffffffffffffffffffffffffffffffff\n      and\n      dup2\n      mstore\n      0x20\n      add\n      swap1\n      dup2\n      mstore\n      0x20\n      add\n      0x00\n      keccak256\n        /* \"contracts/FundMe.sol\":938:956  amount[funder] = 0 */\n      dup2\n      swap1\n      sstore\n      pop\n        /* \"contracts/FundMe.sol\":881:968  {... */\n      pop\n        /* \"contracts/FundMe.sol\":877:880  i++ */\n      dup1\n      dup1\n      0x01\n      add\n      swap2\n      pop\n      pop\n        /* \"contracts/FundMe.sol\":844:968  for(uint256 i=0;i<funders.length;i++){... */\n      jump(tag_81)\n    tag_82:\n      pop\n        /* \"contracts/FundMe.sol\":1002:1003  0 */\n      0x00\n        /* \"contracts/FundMe.sol\":988:1004  new address[](0) */\n      0xffffffffffffffff\n      dup2\n      gt\n      iszero\n      tag_88\n      jumpi\n      tag_89\n      tag_90\n      jump\t// in\n    tag_89:\n    tag_88:\n      mload(0x40)\n      swap1\n      dup1\n      dup3\n      mstore\n      dup1\n      0x20\n      mul\n      0x20\n      add\n      dup3\n      add\n      0x40\n      mstore\n      dup1\n      iszero\n      tag_91\n      jumpi\n      dup2\n      0x20\n      add\n      0x20\n      dup3\n      mul\n      dup1\n      calldatasize\n      dup4\n      calldatacopy\n      dup1\n      dup3\n      add\n      swap2\n      pop\n      pop\n      swap1\n      pop\n    tag_91:\n      pop\n        /* \"contracts/FundMe.sol\":978:985  funders */\n      0x00\n        /* \"contracts/FundMe.sol\":978:1004  funders = new address[](0) */\n      swap1\n      dup1\n      mload\n      swap1\n      0x20\n      add\n      swap1\n      tag_92\n      swap3\n      swap2\n      swap1\n      tag_93\n      jump\t// in\n    tag_92:\n      pop\n        /* \"contracts/FundMe.sol\":1027:1043  bool callSuccess */\n      0x00\n        /* \"contracts/FundMe.sol\":1054:1064  msg.sender */\n      caller\n        /* \"contracts/FundMe.sol\":1046:1070  payable(msg.sender).call */\n      0xffffffffffffffffffffffffffffffffffffffff\n      and\n        /* \"contracts/FundMe.sol\":1078:1099  address(this).balance */\n      selfbalance\n        /* \"contracts/FundMe.sol\":1046:1104  payable(msg.sender).call{value: address(this).balance}(\"\") */\n      mload(0x40)\n      tag_94\n      swap1\n      tag_95\n      jump\t// in\n    tag_94:\n      0x00\n      mload(0x40)\n      dup1\n      dup4\n      sub\n      dup2\n      dup6\n      dup8\n      gas\n      call\n      swap3\n      pop\n      pop\n      pop\n      returndatasize\n      dup1\n      0x00\n      dup2\n      eq\n      tag_98\n      jumpi\n      mload(0x40)\n      swap2\n      pop\n      and(add(returndatasize, 0x3f), not(0x1f))\n      dup3\n      add\n      0x40\n      mstore\n      returndatasize\n      dup3\n      mstore\n      returndatasize\n      0x00\n      0x20\n      dup5\n      add\n      returndatacopy\n      jump(tag_97)\n    tag_98:\n      0x60\n      swap2\n      pop\n    tag_97:\n      pop\n        /* \"contracts/FundMe.sol\":1026:1104  (bool callSuccess,)=payable(msg.sender).call{value: address(this).balance}(\"\") */\n      pop\n      swap1\n      pop\n        /* \"contracts/FundMe.sol\":1123:1134  callSuccess */\n      dup1\n        /* \"contracts/FundMe.sol\":1115:1149  require(callSuccess,\"Call Failed\") */\n      tag_99\n      jumpi\n      mload(0x40)\n      0x08c379a000000000000000000000000000000000000000000000000000000000\n      dup2\n      mstore\n      0x04\n      add\n      tag_100\n      swap1\n      tag_101\n      jump\t// in\n    tag_100:\n      mload(0x40)\n      dup1\n      swap2\n      sub\n      swap1\n      revert\n    tag_99:\n        /* \"contracts/FundMe.sol\":792:1157  {... */\n      pop\n        /* \"contracts/FundMe.sol\":756:1157  function withdraw() public onlyOwner{... */\n      jump\t// out\n        /* \"contracts/FundMe.sol\":321:363  uint256 public constant MINIMUM_USD = 1e18 */\n    tag_36:\n        /* \"contracts/FundMe.sol\":359:363  1e18 */\n      0x0de0b6b3a7640000\n        /* \"contracts/FundMe.sol\":321:363  uint256 public constant MINIMUM_USD = 1e18 */\n      dup2\n      jump\t// out\n        /* \"contracts/FundMe.sol\":1638:2077  function getPrice() public view returns (uint256) {... */\n    tag_40:\n        /* \"contracts/FundMe.sol\":1679:1686  uint256 */\n      0x00\n        /* \"contracts/FundMe.sol\":1777:1790  int256 answer */\n      0x00\n        /* \"contracts/FundMe.sol\":1939:1981  0xfEefF7c3fB57d18C5C6Cdd71e45D2D0b4F9377bF */\n      0xfeeff7c3fb57d18c5c6cdd71e45d2d0b4f9377bf\n        /* \"contracts/FundMe.sol\":1917:1998  AggregatorV3Interface(0xfEefF7c3fB57d18C5C6Cdd71e45D2D0b4F9377bF).latestRoundData */\n      0xffffffffffffffffffffffffffffffffffffffff\n      and\n      0xfeaf968c\n        /* \"contracts/FundMe.sol\":1917:2000  AggregatorV3Interface(0xfEefF7c3fB57d18C5C6Cdd71e45D2D0b4F9377bF).latestRoundData() */\n      mload(0x40)\n      dup2\n      0xffffffff\n      and\n      0xe0\n      shl\n      dup2\n      mstore\n      0x04\n      add\n      0xa0\n      mload(0x40)\n      dup1\n      dup4\n      sub\n      dup2\n      dup7\n      gas\n      staticcall\n      iszero\n      dup1\n      iszero\n      tag_104\n      jumpi\n      returndatacopy(0x00, 0x00, returndatasize)\n      revert(0x00, returndatasize)\n    tag_104:\n      pop\n      pop\n      pop\n      pop\n      mload(0x40)\n      returndatasize\n      not(0x1f)\n      0x1f\n      dup3\n      add\n      and\n      dup3\n      add\n      dup1\n      0x40\n      mstore\n      pop\n      dup2\n      add\n      swap1\n      tag_105\n      swap2\n      swap1\n      tag_106\n      jump\t// in\n    tag_105:\n        /* \"contracts/FundMe.sol\":1727:2000  (... */\n      pop\n      pop\n      pop\n      swap2\n      pop\n      pop\n        /* \"contracts/FundMe.sol\":2042:2046  1e10 */\n      0x02540be400\n        /* \"contracts/FundMe.sol\":2035:2041  answer */\n      dup2\n        /* \"contracts/FundMe.sol\":2035:2046  answer*1e10 */\n      tag_107\n      swap2\n      swap1\n      tag_108\n      jump\t// in\n    tag_107:\n        /* \"contracts/FundMe.sol\":2020:2047  return uint256(answer*1e10) */\n      swap2\n      pop\n      pop\n        /* \"contracts/FundMe.sol\":1638:2077  function getPrice() public view returns (uint256) {... */\n      swap1\n      jump\t// out\n        /* \"contracts/FundMe.sol\":401:443  mapping (address => uint256) public amount */\n    tag_47:\n      mstore(0x20, 0x01)\n      dup1\n      0x00\n      mstore\n      keccak256(0x00, 0x40)\n      0x00\n      swap2\n      pop\n      swap1\n      pop\n      sload\n      dup2\n      jump\t// out\n        /* \"contracts/FundMe.sol\":450:482  address public immutable i_owner */\n    tag_51:\n      immutable(\"0x4569971f3d79dc8da7f8a6820be6cb8dc4a52bb0df6599b2aae7182111b63cd5\")\n      dup2\n      jump\t// out\n        /* \"contracts/FundMe.sol\":370:394  address[] public funders */\n    tag_57:\n      0x00\n      dup2\n      dup2\n      sload\n      dup2\n      lt\n      tag_109\n      jumpi\n      0x00\n      dup1\n      revert\n    tag_109:\n      swap1\n      0x00\n      mstore\n      keccak256(0x00, 0x20)\n      add\n      0x00\n      swap2\n      pop\n      sload\n      swap1\n      0x0100\n      exp\n      swap1\n      div\n      0xffffffffffffffffffffffffffffffffffffffff\n      and\n      dup2\n      jump\t// out\n    tag_93:\n      dup3\n      dup1\n      sload\n      dup3\n      dup3\n      sstore\n      swap1\n      0x00\n      mstore\n      keccak256(0x00, 0x20)\n      swap1\n      dup2\n      add\n      swap3\n      dup3\n      iszero\n      tag_111\n      jumpi\n      swap2\n      0x20\n      mul\n      dup3\n      add\n    tag_112:\n      dup3\n      dup2\n      gt\n      iszero\n      tag_113\n      jumpi\n      dup3\n      mload\n      dup3\n      exp(0x0100, 0x00)\n      dup2\n      sload\n      dup2\n      0xffffffffffffffffffffffffffffffffffffffff\n      mul\n      not\n      and\n      swap1\n      dup4\n      0xffffffffffffffffffffffffffffffffffffffff\n      and\n      mul\n      or\n      swap1\n      sstore\n      pop\n      swap2\n      0x20\n      add\n      swap2\n      swap1\n      0x01\n      add\n      swap1\n      jump(tag_112)\n    tag_113:\n    tag_111:\n      pop\n      swap1\n      pop\n      tag_114\n      swap2\n      swap1\n      tag_115\n      jump\t// in\n    tag_114:\n      pop\n      swap1\n      jump\t// out\n    tag_115:\n    tag_116:\n      dup1\n      dup3\n      gt\n      iszero\n      tag_117\n      jumpi\n      0x00\n      dup2\n      0x00\n      swap1\n      sstore\n      pop\n      0x01\n      add\n      jump(tag_116)\n    tag_117:\n      pop\n      swap1\n      jump\t// out\n        /* \"#utility.yul\":88:205   */\n    tag_119:\n        /* \"#utility.yul\":197:198   */\n      0x00\n        /* \"#utility.yul\":194:195   */\n      0x00\n        /* \"#utility.yul\":187:199   */\n      revert\n        /* \"#utility.yul\":334:411   */\n    tag_121:\n        /* \"#utility.yul\":371:378   */\n      0x00\n        /* \"#utility.yul\":400:405   */\n      dup2\n        /* \"#utility.yul\":389:405   */\n      swap1\n      pop\n        /* \"#utility.yul\":334:411   */\n      swap2\n      swap1\n      pop\n      jump\t// out\n        /* \"#utility.yul\":417:539   */\n    tag_122:\n        /* \"#utility.yul\":490:514   */\n      tag_153\n        /* \"#utility.yul\":508:513   */\n      dup2\n        /* \"#utility.yul\":490:514   */\n      tag_121\n      jump\t// in\n    tag_153:\n        /* \"#utility.yul\":483:488   */\n      dup2\n        /* \"#utility.yul\":480:515   */\n      eq\n        /* \"#utility.yul\":470:533   */\n      tag_154\n      jumpi\n        /* \"#utility.yul\":529:530   */\n      0x00\n        /* \"#utility.yul\":526:527   */\n      0x00\n        /* \"#utility.yul\":519:531   */\n      revert\n        /* \"#utility.yul\":470:533   */\n    tag_154:\n        /* \"#utility.yul\":417:539   */\n      pop\n      jump\t// out\n        /* \"#utility.yul\":545:684   */\n    tag_123:\n        /* \"#utility.yul\":591:596   */\n      0x00\n        /* \"#utility.yul\":629:635   */\n      dup2\n        /* \"#utility.yul\":616:636   */\n      calldataload\n        /* \"#utility.yul\":607:636   */\n      swap1\n      pop\n        /* \"#utility.yul\":645:678   */\n      tag_156\n        /* \"#utility.yul\":672:677   */\n      dup2\n        /* \"#utility.yul\":645:678   */\n      tag_122\n      jump\t// in\n    tag_156:\n        /* \"#utility.yul\":545:684   */\n      swap3\n      swap2\n      pop\n      pop\n      jump\t// out\n        /* \"#utility.yul\":690:1019   */\n    tag_23:\n        /* \"#utility.yul\":749:755   */\n      0x00\n        /* \"#utility.yul\":798:800   */\n      0x20\n        /* \"#utility.yul\":786:795   */\n      dup3\n        /* \"#utility.yul\":777:784   */\n      dup5\n        /* \"#utility.yul\":773:796   */\n      sub\n        /* \"#utility.yul\":769:801   */\n      slt\n        /* \"#utility.yul\":766:885   */\n      iszero\n      tag_158\n      jumpi\n        /* \"#utility.yul\":804:883   */\n      tag_159\n      tag_119\n      jump\t// in\n    tag_159:\n        /* \"#utility.yul\":766:885   */\n    tag_158:\n        /* \"#utility.yul\":924:925   */\n      0x00\n        /* \"#utility.yul\":949:1002   */\n      tag_160\n        /* \"#utility.yul\":994:1001   */\n      dup5\n        /* \"#utility.yul\":985:991   */\n      dup3\n        /* \"#utility.yul\":974:983   */\n      dup6\n        /* \"#utility.yul\":970:992   */\n      add\n        /* \"#utility.yul\":949:1002   */\n      tag_123\n      jump\t// in\n    tag_160:\n        /* \"#utility.yul\":939:1002   */\n      swap2\n      pop\n        /* \"#utility.yul\":895:1012   */\n      pop\n        /* \"#utility.yul\":690:1019   */\n      swap3\n      swap2\n      pop\n      pop\n      jump\t// out\n        /* \"#utility.yul\":1025:1143   */\n    tag_124:\n        /* \"#utility.yul\":1112:1136   */\n      tag_162\n        /* \"#utility.yul\":1130:1135   */\n      dup2\n        /* \"#utility.yul\":1112:1136   */\n      tag_121\n      jump\t// in\n    tag_162:\n        /* \"#utility.yul\":1107:1110   */\n      dup3\n        /* \"#utility.yul\":1100:1137   */\n      mstore\n        /* \"#utility.yul\":1025:1143   */\n      pop\n      pop\n      jump\t// out\n        /* \"#utility.yul\":1149:1371   */\n    tag_26:\n        /* \"#utility.yul\":1242:1246   */\n      0x00\n        /* \"#utility.yul\":1280:1282   */\n      0x20\n        /* \"#utility.yul\":1269:1278   */\n      dup3\n        /* \"#utility.yul\":1265:1283   */\n      add\n        /* \"#utility.yul\":1257:1283   */\n      swap1\n      pop\n        /* \"#utility.yul\":1293:1364   */\n      tag_164\n        /* \"#utility.yul\":1361:1362   */\n      0x00\n        /* \"#utility.yul\":1350:1359   */\n      dup4\n        /* \"#utility.yul\":1346:1363   */\n      add\n        /* \"#utility.yul\":1337:1343   */\n      dup5\n        /* \"#utility.yul\":1293:1364   */\n      tag_124\n      jump\t// in\n    tag_164:\n        /* \"#utility.yul\":1149:1371   */\n      swap3\n      swap2\n      pop\n      pop\n      jump\t// out\n        /* \"#utility.yul\":1377:1503   */\n    tag_125:\n        /* \"#utility.yul\":1414:1421   */\n      0x00\n        /* \"#utility.yul\":1454:1496   */\n      0xffffffffffffffffffffffffffffffffffffffff\n        /* \"#utility.yul\":1447:1452   */\n      dup3\n        /* \"#utility.yul\":1443:1497   */\n      and\n        /* \"#utility.yul\":1432:1497   */\n      swap1\n      pop\n        /* \"#utility.yul\":1377:1503   */\n      swap2\n      swap1\n      pop\n      jump\t// out\n        /* \"#utility.yul\":1509:1605   */\n    tag_126:\n        /* \"#utility.yul\":1546:1553   */\n      0x00\n        /* \"#utility.yul\":1575:1599   */\n      tag_167\n        /* \"#utility.yul\":1593:1598   */\n      dup3\n        /* \"#utility.yul\":1575:1599   */\n      tag_125\n      jump\t// in\n    tag_167:\n        /* \"#utility.yul\":1564:1599   */\n      swap1\n      pop\n        /* \"#utility.yul\":1509:1605   */\n      swap2\n      swap1\n      pop\n      jump\t// out\n        /* \"#utility.yul\":1611:1733   */\n    tag_127:\n        /* \"#utility.yul\":1684:1708   */\n      tag_169\n        /* \"#utility.yul\":1702:1707   */\n      dup2\n        /* \"#utility.yul\":1684:1708   */\n      tag_126\n      jump\t// in\n    tag_169:\n        /* \"#utility.yul\":1677:1682   */\n      dup2\n        /* \"#utility.yul\":1674:1709   */\n      eq\n        /* \"#utility.yul\":1664:1727   */\n      tag_170\n      jumpi\n        /* \"#utility.yul\":1723:1724   */\n      0x00\n        /* \"#utility.yul\":1720:1721   */\n      0x00\n        /* \"#utility.yul\":1713:1725   */\n      revert\n        /* \"#utility.yul\":1664:1727   */\n    tag_170:\n        /* \"#utility.yul\":1611:1733   */\n      pop\n      jump\t// out\n        /* \"#utility.yul\":1739:1878   */\n    tag_128:\n        /* \"#utility.yul\":1785:1790   */\n      0x00\n        /* \"#utility.yul\":1823:1829   */\n      dup2\n        /* \"#utility.yul\":1810:1830   */\n      calldataload\n        /* \"#utility.yul\":1801:1830   */\n      swap1\n      pop\n        /* \"#utility.yul\":1839:1872   */\n      tag_172\n        /* \"#utility.yul\":1866:1871   */\n      dup2\n        /* \"#utility.yul\":1839:1872   */\n      tag_127\n      jump\t// in\n    tag_172:\n        /* \"#utility.yul\":1739:1878   */\n      swap3\n      swap2\n      pop\n      pop\n      jump\t// out\n        /* \"#utility.yul\":1884:2213   */\n    tag_46:\n        /* \"#utility.yul\":1943:1949   */\n      0x00\n        /* \"#utility.yul\":1992:1994   */\n      0x20\n        /* \"#utility.yul\":1980:1989   */\n      dup3\n        /* \"#utility.yul\":1971:1978   */\n      dup5\n        /* \"#utility.yul\":1967:1990   */\n      sub\n        /* \"#utility.yul\":1963:1995   */\n      slt\n        /* \"#utility.yul\":1960:2079   */\n      iszero\n      tag_174\n      jumpi\n        /* \"#utility.yul\":1998:2077   */\n      tag_175\n      tag_119\n      jump\t// in\n    tag_175:\n        /* \"#utility.yul\":1960:2079   */\n    tag_174:\n        /* \"#utility.yul\":2118:2119   */\n      0x00\n        /* \"#utility.yul\":2143:2196   */\n      tag_176\n        /* \"#utility.yul\":2188:2195   */\n      dup5\n        /* \"#utility.yul\":2179:2185   */\n      dup3\n        /* \"#utility.yul\":2168:2177   */\n      dup6\n        /* \"#utility.yul\":2164:2186   */\n      add\n        /* \"#utility.yul\":2143:2196   */\n      tag_128\n      jump\t// in\n    tag_176:\n        /* \"#utility.yul\":2133:2196   */\n      swap2\n      pop\n        /* \"#utility.yul\":2089:2206   */\n      pop\n        /* \"#utility.yul\":1884:2213   */\n      swap3\n      swap2\n      pop\n      pop\n      jump\t// out\n        /* \"#utility.yul\":2219:2337   */\n    tag_129:\n        /* \"#utility.yul\":2306:2330   */\n      tag_178\n        /* \"#utility.yul\":2324:2329   */\n      dup2\n        /* \"#utility.yul\":2306:2330   */\n      tag_126\n      jump\t// in\n    tag_178:\n        /* \"#utility.yul\":2301:2304   */\n      dup3\n        /* \"#utility.yul\":2294:2331   */\n      mstore\n        /* \"#utility.yul\":2219:2337   */\n      pop\n      pop\n      jump\t// out\n        /* \"#utility.yul\":2343:2565   */\n    tag_53:\n        /* \"#utility.yul\":2436:2440   */\n      0x00\n        /* \"#utility.yul\":2474:2476   */\n      0x20\n        /* \"#utility.yul\":2463:2472   */\n      dup3\n        /* \"#utility.yul\":2459:2477   */\n      add\n        /* \"#utility.yul\":2451:2477   */\n      swap1\n      pop\n        /* \"#utility.yul\":2487:2558   */\n      tag_180\n        /* \"#utility.yul\":2555:2556   */\n      0x00\n        /* \"#utility.yul\":2544:2553   */\n      dup4\n        /* \"#utility.yul\":2540:2557   */\n      add\n        /* \"#utility.yul\":2531:2537   */\n      dup5\n        /* \"#utility.yul\":2487:2558   */\n      tag_129\n      jump\t// in\n    tag_180:\n        /* \"#utility.yul\":2343:2565   */\n      swap3\n      swap2\n      pop\n      pop\n      jump\t// out\n        /* \"#utility.yul\":2571:2740   */\n    tag_130:\n        /* \"#utility.yul\":2655:2666   */\n      0x00\n        /* \"#utility.yul\":2689:2695   */\n      dup3\n        /* \"#utility.yul\":2684:2687   */\n      dup3\n        /* \"#utility.yul\":2677:2696   */\n      mstore\n        /* \"#utility.yul\":2729:2733   */\n      0x20\n        /* \"#utility.yul\":2724:2727   */\n      dup3\n        /* \"#utility.yul\":2720:2734   */\n      add\n        /* \"#utility.yul\":2705:2734   */\n      swap1\n      pop\n        /* \"#utility.yul\":2571:2740   */\n      swap3\n      swap2\n      pop\n      pop\n      jump\t// out\n        /* \"#utility.yul\":2746:2918   */\n    tag_131:\n        /* \"#utility.yul\":2886:2910   */\n      0x4e6f206d696e696d756d20616d6f756e742073656e7400000000000000000000\n        /* \"#utility.yul\":2882:2883   */\n      0x00\n        /* \"#utility.yul\":2874:2880   */\n      dup3\n        /* \"#utility.yul\":2870:2884   */\n      add\n        /* \"#utility.yul\":2863:2911   */\n      mstore\n        /* \"#utility.yul\":2746:2918   */\n      pop\n      jump\t// out\n        /* \"#utility.yul\":2924:3290   */\n    tag_132:\n        /* \"#utility.yul\":3066:3069   */\n      0x00\n        /* \"#utility.yul\":3087:3154   */\n      tag_184\n        /* \"#utility.yul\":3151:3153   */\n      0x16\n        /* \"#utility.yul\":3146:3149   */\n      dup4\n        /* \"#utility.yul\":3087:3154   */\n      tag_130\n      jump\t// in\n    tag_184:\n        /* \"#utility.yul\":3080:3154   */\n      swap2\n      pop\n        /* \"#utility.yul\":3163:3256   */\n      tag_185\n        /* \"#utility.yul\":3252:3255   */\n      dup3\n        /* \"#utility.yul\":3163:3256   */\n      tag_131\n      jump\t// in\n    tag_185:\n        /* \"#utility.yul\":3281:3283   */\n      0x20\n        /* \"#utility.yul\":3276:3279   */\n      dup3\n        /* \"#utility.yul\":3272:3284   */\n      add\n        /* \"#utility.yul\":3265:3284   */\n      swap1\n      pop\n        /* \"#utility.yul\":2924:3290   */\n      swap2\n      swap1\n      pop\n      jump\t// out\n        /* \"#utility.yul\":3296:3715   */\n    tag_63:\n        /* \"#utility.yul\":3462:3466   */\n      0x00\n        /* \"#utility.yul\":3500:3502   */\n      0x20\n        /* \"#utility.yul\":3489:3498   */\n      dup3\n        /* \"#utility.yul\":3485:3503   */\n      add\n        /* \"#utility.yul\":3477:3503   */\n      swap1\n      pop\n        /* \"#utility.yul\":3549:3558   */\n      dup2\n        /* \"#utility.yul\":3543:3547   */\n      dup2\n        /* \"#utility.yul\":3539:3559   */\n      sub\n        /* \"#utility.yul\":3535:3536   */\n      0x00\n        /* \"#utility.yul\":3524:3533   */\n      dup4\n        /* \"#utility.yul\":3520:3537   */\n      add\n        /* \"#utility.yul\":3513:3560   */\n      mstore\n        /* \"#utility.yul\":3577:3708   */\n      tag_187\n        /* \"#utility.yul\":3703:3707   */\n      dup2\n        /* \"#utility.yul\":3577:3708   */\n      tag_132\n      jump\t// in\n    tag_187:\n        /* \"#utility.yul\":3569:3708   */\n      swap1\n      pop\n        /* \"#utility.yul\":3296:3715   */\n      swap2\n      swap1\n      pop\n      jump\t// out\n        /* \"#utility.yul\":3721:3901   */\n    tag_133:\n        /* \"#utility.yul\":3769:3846   */\n      0x4e487b7100000000000000000000000000000000000000000000000000000000\n        /* \"#utility.yul\":3766:3767   */\n      0x00\n        /* \"#utility.yul\":3759:3847   */\n      mstore\n        /* \"#utility.yul\":3866:3870   */\n      0x11\n        /* \"#utility.yul\":3863:3864   */\n      0x04\n        /* \"#utility.yul\":3856:3871   */\n      mstore\n        /* \"#utility.yul\":3890:3894   */\n      0x24\n        /* \"#utility.yul\":3887:3888   */\n      0x00\n        /* \"#utility.yul\":3880:3895   */\n      revert\n        /* \"#utility.yul\":3907:4098   */\n    tag_66:\n        /* \"#utility.yul\":3947:3950   */\n      0x00\n        /* \"#utility.yul\":3966:3986   */\n      tag_190\n        /* \"#utility.yul\":3984:3985   */\n      dup3\n        /* \"#utility.yul\":3966:3986   */\n      tag_121\n      jump\t// in\n    tag_190:\n        /* \"#utility.yul\":3961:3986   */\n      swap2\n      pop\n        /* \"#utility.yul\":4000:4020   */\n      tag_191\n        /* \"#utility.yul\":4018:4019   */\n      dup4\n        /* \"#utility.yul\":4000:4020   */\n      tag_121\n      jump\t// in\n    tag_191:\n        /* \"#utility.yul\":3995:4020   */\n      swap3\n      pop\n        /* \"#utility.yul\":4043:4044   */\n      dup3\n        /* \"#utility.yul\":4040:4041   */\n      dup3\n        /* \"#utility.yul\":4036:4045   */\n      add\n        /* \"#utility.yul\":4029:4045   */\n      swap1\n      pop\n        /* \"#utility.yul\":4064:4067   */\n      dup1\n        /* \"#utility.yul\":4061:4062   */\n      dup3\n        /* \"#utility.yul\":4058:4068   */\n      gt\n        /* \"#utility.yul\":4055:4091   */\n      iszero\n      tag_192\n      jumpi\n        /* \"#utility.yul\":4071:4089   */\n      tag_193\n      tag_133\n      jump\t// in\n    tag_193:\n        /* \"#utility.yul\":4055:4091   */\n    tag_192:\n        /* \"#utility.yul\":3907:4098   */\n      swap3\n      swap2\n      pop\n      pop\n      jump\t// out\n        /* \"#utility.yul\":4104:4514   */\n    tag_70:\n        /* \"#utility.yul\":4144:4151   */\n      0x00\n        /* \"#utility.yul\":4167:4187   */\n      tag_195\n        /* \"#utility.yul\":4185:4186   */\n      dup3\n        /* \"#utility.yul\":4167:4187   */\n      tag_121\n      jump\t// in\n    tag_195:\n        /* \"#utility.yul\":4162:4187   */\n      swap2\n      pop\n        /* \"#utility.yul\":4201:4221   */\n      tag_196\n        /* \"#utility.yul\":4219:4220   */\n      dup4\n        /* \"#utility.yul\":4201:4221   */\n      tag_121\n      jump\t// in\n    tag_196:\n        /* \"#utility.yul\":4196:4221   */\n      swap3\n      pop\n        /* \"#utility.yul\":4256:4257   */\n      dup3\n        /* \"#utility.yul\":4253:4254   */\n      dup3\n        /* \"#utility.yul\":4249:4258   */\n      mul\n        /* \"#utility.yul\":4278:4308   */\n      tag_197\n        /* \"#utility.yul\":4296:4307   */\n      dup2\n        /* \"#utility.yul\":4278:4308   */\n      tag_121\n      jump\t// in\n    tag_197:\n        /* \"#utility.yul\":4267:4308   */\n      swap2\n      pop\n        /* \"#utility.yul\":4457:4458   */\n      dup3\n        /* \"#utility.yul\":4448:4455   */\n      dup3\n        /* \"#utility.yul\":4444:4459   */\n      div\n        /* \"#utility.yul\":4441:4442   */\n      dup5\n        /* \"#utility.yul\":4438:4460   */\n      eq\n        /* \"#utility.yul\":4418:4419   */\n      dup4\n        /* \"#utility.yul\":4411:4420   */\n      iszero\n        /* \"#utility.yul\":4391:4474   */\n      or\n        /* \"#utility.yul\":4368:4507   */\n      tag_198\n      jumpi\n        /* \"#utility.yul\":4487:4505   */\n      tag_199\n      tag_133\n      jump\t// in\n    tag_199:\n        /* \"#utility.yul\":4368:4507   */\n    tag_198:\n        /* \"#utility.yul\":4152:4514   */\n      pop\n        /* \"#utility.yul\":4104:4514   */\n      swap3\n      swap2\n      pop\n      pop\n      jump\t// out\n        /* \"#utility.yul\":4520:4700   */\n    tag_134:\n        /* \"#utility.yul\":4568:4645   */\n      0x4e487b7100000000000000000000000000000000000000000000000000000000\n        /* \"#utility.yul\":4565:4566   */\n      0x00\n        /* \"#utility.yul\":4558:4646   */\n      mstore\n        /* \"#utility.yul\":4665:4669   */\n      0x12\n        /* \"#utility.yul\":4662:4663   */\n      0x04\n        /* \"#utility.yul\":4655:4670   */\n      mstore\n        /* \"#utility.yul\":4689:4693   */\n      0x24\n        /* \"#utility.yul\":4686:4687   */\n      0x00\n        /* \"#utility.yul\":4679:4694   */\n      revert\n        /* \"#utility.yul\":4706:4891   */\n    tag_72:\n        /* \"#utility.yul\":4746:4747   */\n      0x00\n        /* \"#utility.yul\":4763:4783   */\n      tag_202\n        /* \"#utility.yul\":4781:4782   */\n      dup3\n        /* \"#utility.yul\":4763:4783   */\n      tag_121\n      jump\t// in\n    tag_202:\n        /* \"#utility.yul\":4758:4783   */\n      swap2\n      pop\n        /* \"#utility.yul\":4797:4817   */\n      tag_203\n        /* \"#utility.yul\":4815:4816   */\n      dup4\n        /* \"#utility.yul\":4797:4817   */\n      tag_121\n      jump\t// in\n    tag_203:\n        /* \"#utility.yul\":4792:4817   */\n      swap3\n      pop\n        /* \"#utility.yul\":4836:4837   */\n      dup3\n        /* \"#utility.yul\":4826:4861   */\n      tag_204\n      jumpi\n        /* \"#utility.yul\":4841:4859   */\n      tag_205\n      tag_134\n      jump\t// in\n    tag_205:\n        /* \"#utility.yul\":4826:4861   */\n    tag_204:\n        /* \"#utility.yul\":4883:4884   */\n      dup3\n        /* \"#utility.yul\":4880:4881   */\n      dup3\n        /* \"#utility.yul\":4876:4885   */\n      div\n        /* \"#utility.yul\":4871:4885   */\n      swap1\n      pop\n        /* \"#utility.yul\":4706:4891   */\n      swap3\n      swap2\n      pop\n      pop\n      jump\t// out\n        /* \"#utility.yul\":4897:5040   */\n    tag_135:\n        /* \"#utility.yul\":4954:4959   */\n      0x00\n        /* \"#utility.yul\":4985:4991   */\n      dup2\n        /* \"#utility.yul\":4979:4992   */\n      mload\n        /* \"#utility.yul\":4970:4992   */\n      swap1\n      pop\n        /* \"#utility.yul\":5001:5034   */\n      tag_207\n        /* \"#utility.yul\":5028:5033   */\n      dup2\n        /* \"#utility.yul\":5001:5034   */\n      tag_122\n      jump\t// in\n    tag_207:\n        /* \"#utility.yul\":4897:5040   */\n      swap3\n      swap2\n      pop\n      pop\n      jump\t// out\n        /* \"#utility.yul\":5046:5397   */\n    tag_77:\n        /* \"#utility.yul\":5116:5122   */\n      0x00\n        /* \"#utility.yul\":5165:5167   */\n      0x20\n        /* \"#utility.yul\":5153:5162   */\n      dup3\n        /* \"#utility.yul\":5144:5151   */\n      dup5\n        /* \"#utility.yul\":5140:5163   */\n      sub\n        /* \"#utility.yul\":5136:5168   */\n      slt\n        /* \"#utility.yul\":5133:5252   */\n      iszero\n      tag_209\n      jumpi\n        /* \"#utility.yul\":5171:5250   */\n      tag_210\n      tag_119\n      jump\t// in\n    tag_210:\n        /* \"#utility.yul\":5133:5252   */\n    tag_209:\n        /* \"#utility.yul\":5291:5292   */\n      0x00\n        /* \"#utility.yul\":5316:5380   */\n      tag_211\n        /* \"#utility.yul\":5372:5379   */\n      dup5\n        /* \"#utility.yul\":5363:5369   */\n      dup3\n        /* \"#utility.yul\":5352:5361   */\n      dup6\n        /* \"#utility.yul\":5348:5370   */\n      add\n        /* \"#utility.yul\":5316:5380   */\n      tag_135\n      jump\t// in\n    tag_211:\n        /* \"#utility.yul\":5306:5380   */\n      swap2\n      pop\n        /* \"#utility.yul\":5262:5390   */\n      pop\n        /* \"#utility.yul\":5046:5397   */\n      swap3\n      swap2\n      pop\n      pop\n      jump\t// out\n        /* \"#utility.yul\":5403:5583   */\n    tag_86:\n        /* \"#utility.yul\":5451:5528   */\n      0x4e487b7100000000000000000000000000000000000000000000000000000000\n        /* \"#utility.yul\":5448:5449   */\n      0x00\n        /* \"#utility.yul\":5441:5529   */\n      mstore\n        /* \"#utility.yul\":5548:5552   */\n      0x32\n        /* \"#utility.yul\":5545:5546   */\n      0x04\n        /* \"#utility.yul\":5538:5553   */\n      mstore\n        /* \"#utility.yul\":5572:5576   */\n      0x24\n        /* \"#utility.yul\":5569:5570   */\n      0x00\n        /* \"#utility.yul\":5562:5577   */\n      revert\n        /* \"#utility.yul\":5589:5769   */\n    tag_90:\n        /* \"#utility.yul\":5637:5714   */\n      0x4e487b7100000000000000000000000000000000000000000000000000000000\n        /* \"#utility.yul\":5634:5635   */\n      0x00\n        /* \"#utility.yul\":5627:5715   */\n      mstore\n        /* \"#utility.yul\":5734:5738   */\n      0x41\n        /* \"#utility.yul\":5731:5732   */\n      0x04\n        /* \"#utility.yul\":5724:5739   */\n      mstore\n        /* \"#utility.yul\":5758:5762   */\n      0x24\n        /* \"#utility.yul\":5755:5756   */\n      0x00\n        /* \"#utility.yul\":5748:5763   */\n      revert\n        /* \"#utility.yul\":5775:5922   */\n    tag_136:\n        /* \"#utility.yul\":5876:5887   */\n      0x00\n        /* \"#utility.yul\":5913:5916   */\n      dup2\n        /* \"#utility.yul\":5898:5916   */\n      swap1\n      pop\n        /* \"#utility.yul\":5775:5922   */\n      swap3\n      swap2\n      pop\n      pop\n      jump\t// out\n        /* \"#utility.yul\":5928:6042   */\n    tag_137:\n      pop\n      jump\t// out\n        /* \"#utility.yul\":6048:6446   */\n    tag_138:\n        /* \"#utility.yul\":6207:6210   */\n      0x00\n        /* \"#utility.yul\":6228:6311   */\n      tag_217\n        /* \"#utility.yul\":6309:6310   */\n      0x00\n        /* \"#utility.yul\":6304:6307   */\n      dup4\n        /* \"#utility.yul\":6228:6311   */\n      tag_136\n      jump\t// in\n    tag_217:\n        /* \"#utility.yul\":6221:6311   */\n      swap2\n      pop\n        /* \"#utility.yul\":6320:6413   */\n      tag_218\n        /* \"#utility.yul\":6409:6412   */\n      dup3\n        /* \"#utility.yul\":6320:6413   */\n      tag_137\n      jump\t// in\n    tag_218:\n        /* \"#utility.yul\":6438:6439   */\n      0x00\n        /* \"#utility.yul\":6433:6436   */\n      dup3\n        /* \"#utility.yul\":6429:6440   */\n      add\n        /* \"#utility.yul\":6422:6440   */\n      swap1\n      pop\n        /* \"#utility.yul\":6048:6446   */\n      swap2\n      swap1\n      pop\n      jump\t// out\n        /* \"#utility.yul\":6452:6831   */\n    tag_95:\n        /* \"#utility.yul\":6636:6639   */\n      0x00\n        /* \"#utility.yul\":6658:6805   */\n      tag_220\n        /* \"#utility.yul\":6801:6804   */\n      dup3\n        /* \"#utility.yul\":6658:6805   */\n      tag_138\n      jump\t// in\n    tag_220:\n        /* \"#utility.yul\":6651:6805   */\n      swap2\n      pop\n        /* \"#utility.yul\":6822:6825   */\n      dup2\n        /* \"#utility.yul\":6815:6825   */\n      swap1\n      pop\n        /* \"#utility.yul\":6452:6831   */\n      swap2\n      swap1\n      pop\n      jump\t// out\n        /* \"#utility.yul\":6837:6998   */\n    tag_139:\n        /* \"#utility.yul\":6977:6990   */\n      0x43616c6c204661696c6564000000000000000000000000000000000000000000\n        /* \"#utility.yul\":6973:6974   */\n      0x00\n        /* \"#utility.yul\":6965:6971   */\n      dup3\n        /* \"#utility.yul\":6961:6975   */\n      add\n        /* \"#utility.yul\":6954:6991   */\n      mstore\n        /* \"#utility.yul\":6837:6998   */\n      pop\n      jump\t// out\n        /* \"#utility.yul\":7004:7370   */\n    tag_140:\n        /* \"#utility.yul\":7146:7149   */\n      0x00\n        /* \"#utility.yul\":7167:7234   */\n      tag_223\n        /* \"#utility.yul\":7231:7233   */\n      0x0b\n        /* \"#utility.yul\":7226:7229   */\n      dup4\n        /* \"#utility.yul\":7167:7234   */\n      tag_130\n      jump\t// in\n    tag_223:\n        /* \"#utility.yul\":7160:7234   */\n      swap2\n      pop\n        /* \"#utility.yul\":7243:7336   */\n      tag_224\n        /* \"#utility.yul\":7332:7335   */\n      dup3\n        /* \"#utility.yul\":7243:7336   */\n      tag_139\n      jump\t// in\n    tag_224:\n        /* \"#utility.yul\":7361:7363   */\n      0x20\n        /* \"#utility.yul\":7356:7359   */\n      dup3\n        /* \"#utility.yul\":7352:7364   */\n      add\n        /* \"#utility.yul\":7345:7364   */\n      swap1\n      pop\n        /* \"#utility.yul\":7004:7370   */\n      swap2\n      swap1\n      pop\n      jump\t// out\n        /* \"#utility.yul\":7376:7795   */\n    tag_101:\n        /* \"#utility.yul\":7542:7546   */\n      0x00\n        /* \"#utility.yul\":7580:7582   */\n      0x20\n        /* \"#utility.yul\":7569:7578   */\n      dup3\n        /* \"#utility.yul\":7565:7583   */\n      add\n        /* \"#utility.yul\":7557:7583   */\n      swap1\n      pop\n        /* \"#utility.yul\":7629:7638   */\n      dup2\n        /* \"#utility.yul\":7623:7627   */\n      dup2\n        /* \"#utility.yul\":7619:7639   */\n      sub\n        /* \"#utility.yul\":7615:7616   */\n      0x00\n        /* \"#utility.yul\":7604:7613   */\n      dup4\n        /* \"#utility.yul\":7600:7617   */\n      add\n        /* \"#utility.yul\":7593:7640   */\n      mstore\n        /* \"#utility.yul\":7657:7788   */\n      tag_226\n        /* \"#utility.yul\":7783:7787   */\n      dup2\n        /* \"#utility.yul\":7657:7788   */\n      tag_140\n      jump\t// in\n    tag_226:\n        /* \"#utility.yul\":7649:7788   */\n      swap1\n      pop\n        /* \"#utility.yul\":7376:7795   */\n      swap2\n      swap1\n      pop\n      jump\t// out\n        /* \"#utility.yul\":7801:7906   */\n    tag_141:\n        /* \"#utility.yul\":7837:7844   */\n      0x00\n        /* \"#utility.yul\":7877:7899   */\n      0xffffffffffffffffffff\n        /* \"#utility.yul\":7870:7875   */\n      dup3\n        /* \"#utility.yul\":7866:7900   */\n      and\n        /* \"#utility.yul\":7855:7900   */\n      swap1\n      pop\n        /* \"#utility.yul\":7801:7906   */\n      swap2\n      swap1\n      pop\n      jump\t// out\n        /* \"#utility.yul\":7912:8032   */\n    tag_142:\n        /* \"#utility.yul\":7984:8007   */\n      tag_229\n        /* \"#utility.yul\":8001:8006   */\n      dup2\n        /* \"#utility.yul\":7984:8007   */\n      tag_141\n      jump\t// in\n    tag_229:\n        /* \"#utility.yul\":7977:7982   */\n      dup2\n        /* \"#utility.yul\":7974:8008   */\n      eq\n        /* \"#utility.yul\":7964:8026   */\n      tag_230\n      jumpi\n        /* \"#utility.yul\":8022:8023   */\n      0x00\n        /* \"#utility.yul\":8019:8020   */\n      0x00\n        /* \"#utility.yul\":8012:8024   */\n      revert\n        /* \"#utility.yul\":7964:8026   */\n    tag_230:\n        /* \"#utility.yul\":7912:8032   */\n      pop\n      jump\t// out\n        /* \"#utility.yul\":8038:8179   */\n    tag_143:\n        /* \"#utility.yul\":8094:8099   */\n      0x00\n        /* \"#utility.yul\":8125:8131   */\n      dup2\n        /* \"#utility.yul\":8119:8132   */\n      mload\n        /* \"#utility.yul\":8110:8132   */\n      swap1\n      pop\n        /* \"#utility.yul\":8141:8173   */\n      tag_232\n        /* \"#utility.yul\":8167:8172   */\n      dup2\n        /* \"#utility.yul\":8141:8173   */\n      tag_142\n      jump\t// in\n    tag_232:\n        /* \"#utility.yul\":8038:8179   */\n      swap3\n      swap2\n      pop\n      pop\n      jump\t// out\n        /* \"#utility.yul\":8185:8261   */\n    tag_144:\n        /* \"#utility.yul\":8221:8228   */\n      0x00\n        /* \"#utility.yul\":8250:8255   */\n      dup2\n        /* \"#utility.yul\":8239:8255   */\n      swap1\n      pop\n        /* \"#utility.yul\":8185:8261   */\n      swap2\n      swap1\n      pop\n      jump\t// out\n        /* \"#utility.yul\":8267:8387   */\n    tag_145:\n        /* \"#utility.yul\":8339:8362   */\n      tag_235\n        /* \"#utility.yul\":8356:8361   */\n      dup2\n        /* \"#utility.yul\":8339:8362   */\n      tag_144\n      jump\t// in\n    tag_235:\n        /* \"#utility.yul\":8332:8337   */\n      dup2\n        /* \"#utility.yul\":8329:8363   */\n      eq\n        /* \"#utility.yul\":8319:8381   */\n      tag_236\n      jumpi\n        /* \"#utility.yul\":8377:8378   */\n      0x00\n        /* \"#utility.yul\":8374:8375   */\n      0x00\n        /* \"#utility.yul\":8367:8379   */\n      revert\n        /* \"#utility.yul\":8319:8381   */\n    tag_236:\n        /* \"#utility.yul\":8267:8387   */\n      pop\n      jump\t// out\n        /* \"#utility.yul\":8393:8534   */\n    tag_146:\n        /* \"#utility.yul\":8449:8454   */\n      0x00\n        /* \"#utility.yul\":8480:8486   */\n      dup2\n        /* \"#utility.yul\":8474:8487   */\n      mload\n        /* \"#utility.yul\":8465:8487   */\n      swap1\n      pop\n        /* \"#utility.yul\":8496:8528   */\n      tag_238\n        /* \"#utility.yul\":8522:8527   */\n      dup2\n        /* \"#utility.yul\":8496:8528   */\n      tag_145\n      jump\t// in\n    tag_238:\n        /* \"#utility.yul\":8393:8534   */\n      swap3\n      swap2\n      pop\n      pop\n      jump\t// out\n        /* \"#utility.yul\":8540:9511   */\n    tag_106:\n        /* \"#utility.yul\":8643:8649   */\n      0x00\n        /* \"#utility.yul\":8651:8657   */\n      0x00\n        /* \"#utility.yul\":8659:8665   */\n      0x00\n        /* \"#utility.yul\":8667:8673   */\n      0x00\n        /* \"#utility.yul\":8675:8681   */\n      0x00\n        /* \"#utility.yul\":8724:8727   */\n      0xa0\n        /* \"#utility.yul\":8712:8721   */\n      dup7\n        /* \"#utility.yul\":8703:8710   */\n      dup9\n        /* \"#utility.yul\":8699:8722   */\n      sub\n        /* \"#utility.yul\":8695:8728   */\n      slt\n        /* \"#utility.yul\":8692:8812   */\n      iszero\n      tag_240\n      jumpi\n        /* \"#utility.yul\":8731:8810   */\n      tag_241\n      tag_119\n      jump\t// in\n    tag_241:\n        /* \"#utility.yul\":8692:8812   */\n    tag_240:\n        /* \"#utility.yul\":8851:8852   */\n      0x00\n        /* \"#utility.yul\":8876:8939   */\n      tag_242\n        /* \"#utility.yul\":8931:8938   */\n      dup9\n        /* \"#utility.yul\":8922:8928   */\n      dup3\n        /* \"#utility.yul\":8911:8920   */\n      dup10\n        /* \"#utility.yul\":8907:8929   */\n      add\n        /* \"#utility.yul\":8876:8939   */\n      tag_143\n      jump\t// in\n    tag_242:\n        /* \"#utility.yul\":8866:8939   */\n      swap6\n      pop\n        /* \"#utility.yul\":8822:8949   */\n      pop\n        /* \"#utility.yul\":8988:8990   */\n      0x20\n        /* \"#utility.yul\":9014:9077   */\n      tag_243\n        /* \"#utility.yul\":9069:9076   */\n      dup9\n        /* \"#utility.yul\":9060:9066   */\n      dup3\n        /* \"#utility.yul\":9049:9058   */\n      dup10\n        /* \"#utility.yul\":9045:9067   */\n      add\n        /* \"#utility.yul\":9014:9077   */\n      tag_146\n      jump\t// in\n    tag_243:\n        /* \"#utility.yul\":9004:9077   */\n      swap5\n      pop\n        /* \"#utility.yul\":8959:9087   */\n      pop\n        /* \"#utility.yul\":9126:9128   */\n      0x40\n        /* \"#utility.yul\":9152:9216   */\n      tag_244\n        /* \"#utility.yul\":9208:9215   */\n      dup9\n        /* \"#utility.yul\":9199:9205   */\n      dup3\n        /* \"#utility.yul\":9188:9197   */\n      dup10\n        /* \"#utility.yul\":9184:9206   */\n      add\n        /* \"#utility.yul\":9152:9216   */\n      tag_135\n      jump\t// in\n    tag_244:\n        /* \"#utility.yul\":9142:9216   */\n      swap4\n      pop\n        /* \"#utility.yul\":9097:9226   */\n      pop\n        /* \"#utility.yul\":9265:9267   */\n      0x60\n        /* \"#utility.yul\":9291:9355   */\n      tag_245\n        /* \"#utility.yul\":9347:9354   */\n      dup9\n        /* \"#utility.yul\":9338:9344   */\n      dup3\n        /* \"#utility.yul\":9327:9336   */\n      dup10\n        /* \"#utility.yul\":9323:9345   */\n      add\n        /* \"#utility.yul\":9291:9355   */\n      tag_135\n      jump\t// in\n    tag_245:\n        /* \"#utility.yul\":9281:9355   */\n      swap3\n      pop\n        /* \"#utility.yul\":9236:9365   */\n      pop\n        /* \"#utility.yul\":9404:9407   */\n      0x80\n        /* \"#utility.yul\":9431:9494   */\n      tag_246\n        /* \"#utility.yul\":9486:9493   */\n      dup9\n        /* \"#utility.yul\":9477:9483   */\n      dup3\n        /* \"#utility.yul\":9466:9475   */\n      dup10\n        /* \"#utility.yul\":9462:9484   */\n      add\n        /* \"#utility.yul\":9431:9494   */\n      tag_143\n      jump\t// in\n    tag_246:\n        /* \"#utility.yul\":9421:9494   */\n      swap2\n      pop\n        /* \"#utility.yul\":9375:9504   */\n      pop\n        /* \"#utility.yul\":8540:9511   */\n      swap3\n      swap6\n      pop\n      swap3\n      swap6\n      swap1\n      swap4\n      pop\n      jump\t// out\n        /* \"#utility.yul\":9517:10073   */\n    tag_108:\n        /* \"#utility.yul\":9556:9563   */\n      0x00\n        /* \"#utility.yul\":9579:9598   */\n      tag_248\n        /* \"#utility.yul\":9596:9597   */\n      dup3\n        /* \"#utility.yul\":9579:9598   */\n      tag_144\n      jump\t// in\n    tag_248:\n        /* \"#utility.yul\":9574:9598   */\n      swap2\n      pop\n        /* \"#utility.yul\":9612:9631   */\n      tag_249\n        /* \"#utility.yul\":9629:9630   */\n      dup4\n        /* \"#utility.yul\":9612:9631   */\n      tag_144\n      jump\t// in\n    tag_249:\n        /* \"#utility.yul\":9607:9631   */\n      swap3\n      pop\n        /* \"#utility.yul\":9666:9667   */\n      dup3\n        /* \"#utility.yul\":9663:9664   */\n      dup3\n        /* \"#utility.yul\":9659:9668   */\n      mul\n        /* \"#utility.yul\":9688:9717   */\n      tag_250\n        /* \"#utility.yul\":9705:9716   */\n      dup2\n        /* \"#utility.yul\":9688:9717   */\n      tag_144\n      jump\t// in\n    tag_250:\n        /* \"#utility.yul\":9677:9717   */\n      swap2\n      pop\n        /* \"#utility.yul\":9775:9841   */\n      0x8000000000000000000000000000000000000000000000000000000000000000\n        /* \"#utility.yul\":9772:9773   */\n      dup5\n        /* \"#utility.yul\":9769:9842   */\n      eq\n        /* \"#utility.yul\":9765:9766   */\n      0x00\n        /* \"#utility.yul\":9762:9763   */\n      dup5\n        /* \"#utility.yul\":9758:9767   */\n      slt\n        /* \"#utility.yul\":9754:9843   */\n      and\n        /* \"#utility.yul\":9751:9866   */\n      iszero\n      tag_251\n      jumpi\n        /* \"#utility.yul\":9846:9864   */\n      tag_252\n      tag_133\n      jump\t// in\n    tag_252:\n        /* \"#utility.yul\":9751:9866   */\n    tag_251:\n        /* \"#utility.yul\":10016:10017   */\n      dup3\n        /* \"#utility.yul\":10007:10014   */\n      dup3\n        /* \"#utility.yul\":10002:10018   */\n      sdiv\n        /* \"#utility.yul\":9999:10000   */\n      dup5\n        /* \"#utility.yul\":9996:10019   */\n      eq\n        /* \"#utility.yul\":9976:9977   */\n      dup4\n        /* \"#utility.yul\":9969:9978   */\n      iszero\n        /* \"#utility.yul\":9949:10033   */\n      or\n        /* \"#utility.yul\":9926:10066   */\n      tag_253\n      jumpi\n        /* \"#utility.yul\":10046:10064   */\n      tag_254\n      tag_133\n      jump\t// in\n    tag_254:\n        /* \"#utility.yul\":9926:10066   */\n    tag_253:\n        /* \"#utility.yul\":9564:10073   */\n      pop\n        /* \"#utility.yul\":9517:10073   */\n      swap3\n      swap2\n      pop\n      pop\n      jump\t// out\n\n    auxdata: 0xa264697066735822122071a26b40ab38ede19d432e91329bf5fb2ba3e53a8f05755a2267bfed9833347264736f6c634300081e0033\n}\n",
				"bytecode": {
					"linkReferences": {},
					"object": "60a0604052348015600e575f5ffd5b503373ffffffffffffffffffffffffffffffffffffffff1660808173ffffffffffffffffffffffffffffffffffffffff1681525050608051610d566100625f395f81816103e501526106d40152610d565ff3fe608060405260043610610089575f3560e01c806398d5fdca1161005857806398d5fdca14610148578063b60d428814610172578063b9f0bf661461017c578063dba6335f146101b8578063dc0d3dff146101e257610098565b8063047abed7146100a25780630d8e6e2c146100de5780633ccfd60b146101085780636b69a5921461011e57610098565b366100985761009661021e565b005b6100a061021e565b005b3480156100ad575f5ffd5b506100c860048036038101906100c39190610809565b610324565b6040516100d59190610843565b60405180910390f35b3480156100e9575f5ffd5b506100f261035c565b6040516100ff9190610843565b60405180910390f35b348015610113575f5ffd5b5061011c6103e3565b005b348015610129575f5ffd5b50610132610611565b60405161013f9190610843565b60405180910390f35b348015610153575f5ffd5b5061015c61061d565b6040516101699190610843565b60405180910390f35b61017a61021e565b005b348015610187575f5ffd5b506101a2600480360381019061019d91906108b6565b6106bd565b6040516101af9190610843565b60405180910390f35b3480156101c3575f5ffd5b506101cc6106d2565b6040516101d991906108f0565b60405180910390f35b3480156101ed575f5ffd5b5061020860048036038101906102039190610809565b6106f6565b60405161021591906108f0565b60405180910390f35b670de0b6b3a764000061023034610324565b11610270576040517f08c379a000000000000000000000000000000000000000000000000000000000815260040161026790610963565b60405180910390fd5b5f33908060018154018082558091505060019003905f5260205f20015f9091909190916101000a81548173ffffffffffffffffffffffffffffffffffffffff021916908373ffffffffffffffffffffffffffffffffffffffff1602179055503460015f3373ffffffffffffffffffffffffffffffffffffffff1673ffffffffffffffffffffffffffffffffffffffff1681526020019081526020015f205f82825461031b91906109ae565b92505081905550565b5f5f61032e61061d565b90505f670de0b6b3a7640000848361034691906109e1565b6103509190610a4f565b90508092505050919050565b5f73feeff7c3fb57d18c5c6cdd71e45d2d0b4f9377bf73ffffffffffffffffffffffffffffffffffffffff166354fd4d506040518163ffffffff1660e01b8152600401602060405180830381865afa1580156103ba573d5f5f3e3d5ffd5b505050506040513d601f19601f820116820180604052508101906103de9190610a93565b905090565b7f000000000000000000000000000000000000000000000000000000000000000073ffffffffffffffffffffffffffffffffffffffff163373ffffffffffffffffffffffffffffffffffffffff1603610468576040517f251c9d6300000000000000000000000000000000000000000000000000000000815260040160405180910390fd5b5f5f90505b5f80549050811015610507575f5f828154811061048d5761048c610abe565b5b905f5260205f20015f9054906101000a900473ffffffffffffffffffffffffffffffffffffffff1690505f60015f8373ffffffffffffffffffffffffffffffffffffffff1673ffffffffffffffffffffffffffffffffffffffff1681526020019081526020015f208190555050808060010191505061046d565b505f67ffffffffffffffff81111561052257610521610aeb565b5b6040519080825280602002602001820160405280156105505781602001602082028036833780820191505090505b505f9080519060200190610565929190610730565b505f3373ffffffffffffffffffffffffffffffffffffffff164760405161058b90610b45565b5f6040518083038185875af1925050503d805f81146105c5576040519150601f19603f3d011682016040523d82523d5f602084013e6105ca565b606091505b505090508061060e576040517f08c379a000000000000000000000000000000000000000000000000000000000815260040161060590610ba3565b60405180910390fd5b50565b670de0b6b3a764000081565b5f5f73feeff7c3fb57d18c5c6cdd71e45d2d0b4f9377bf73ffffffffffffffffffffffffffffffffffffffff1663feaf968c6040518163ffffffff1660e01b815260040160a060405180830381865afa15801561067c573d5f5f3e3d5ffd5b505050506040513d601f19601f820116820180604052508101906106a09190610c33565b5050509150506402540be400816106b79190610caa565b91505090565b6001602052805f5260405f205f915090505481565b7f000000000000000000000000000000000000000000000000000000000000000081565b5f8181548110610704575f80fd5b905f5260205f20015f915054906101000a900473ffffffffffffffffffffffffffffffffffffffff1681565b828054828255905f5260205f209081019282156107a6579160200282015b828111156107a5578251825f6101000a81548173ffffffffffffffffffffffffffffffffffffffff021916908373ffffffffffffffffffffffffffffffffffffffff1602179055509160200191906001019061074e565b5b5090506107b391906107b7565b5090565b5b808211156107ce575f815f9055506001016107b8565b5090565b5f5ffd5b5f819050919050565b6107e8816107d6565b81146107f2575f5ffd5b50565b5f81359050610803816107df565b92915050565b5f6020828403121561081e5761081d6107d2565b5b5f61082b848285016107f5565b91505092915050565b61083d816107d6565b82525050565b5f6020820190506108565f830184610834565b92915050565b5f73ffffffffffffffffffffffffffffffffffffffff82169050919050565b5f6108858261085c565b9050919050565b6108958161087b565b811461089f575f5ffd5b50565b5f813590506108b08161088c565b92915050565b5f602082840312156108cb576108ca6107d2565b5b5f6108d8848285016108a2565b91505092915050565b6108ea8161087b565b82525050565b5f6020820190506109035f8301846108e1565b92915050565b5f82825260208201905092915050565b7f4e6f206d696e696d756d20616d6f756e742073656e74000000000000000000005f82015250565b5f61094d601683610909565b915061095882610919565b602082019050919050565b5f6020820190508181035f83015261097a81610941565b9050919050565b7f4e487b71000000000000000000000000000000000000000000000000000000005f52601160045260245ffd5b5f6109b8826107d6565b91506109c3836107d6565b92508282019050808211156109db576109da610981565b5b92915050565b5f6109eb826107d6565b91506109f6836107d6565b9250828202610a04816107d6565b91508282048414831517610a1b57610a1a610981565b5b5092915050565b7f4e487b71000000000000000000000000000000000000000000000000000000005f52601260045260245ffd5b5f610a59826107d6565b9150610a64836107d6565b925082610a7457610a73610a22565b5b828204905092915050565b5f81519050610a8d816107df565b92915050565b5f60208284031215610aa857610aa76107d2565b5b5f610ab584828501610a7f565b91505092915050565b7f4e487b71000000000000000000000000000000000000000000000000000000005f52603260045260245ffd5b7f4e487b71000000000000000000000000000000000000000000000000000000005f52604160045260245ffd5b5f81905092915050565b50565b5f610b305f83610b18565b9150610b3b82610b22565b5f82019050919050565b5f610b4f82610b25565b9150819050919050565b7f43616c6c204661696c65640000000000000000000000000000000000000000005f82015250565b5f610b8d600b83610909565b9150610b9882610b59565b602082019050919050565b5f6020820190508181035f830152610bba81610b81565b9050919050565b5f69ffffffffffffffffffff82169050919050565b610bdf81610bc1565b8114610be9575f5ffd5b50565b5f81519050610bfa81610bd6565b92915050565b5f819050919050565b610c1281610c00565b8114610c1c575f5ffd5b50565b5f81519050610c2d81610c09565b92915050565b5f5f5f5f5f60a08688031215610c4c57610c4b6107d2565b5b5f610c5988828901610bec565b9550506020610c6a88828901610c1f565b9450506040610c7b88828901610a7f565b9350506060610c8c88828901610a7f565b9250506080610c9d88828901610bec565b9150509295509295909350565b5f610cb482610c00565b9150610cbf83610c00565b9250828202610ccd81610c00565b91507f800000000000000000000000000000000000000000000000000000000000000084145f84121615610d0457610d03610981565b5b8282058414831517610d1957610d18610981565b5b509291505056fea264697066735822122071a26b40ab38ede19d432e91329bf5fb2ba3e53a8f05755a2267bfed9833347264736f6c634300081e0033",
					"opcodes": "PUSH1 0xA0 PUSH1 0x40 MSTORE CALLVALUE DUP1 ISZERO PUSH1 0xE JUMPI PUSH0 PUSH0 REVERT JUMPDEST POP CALLER PUSH20 0xFFFFFFFFFFFFFFFFFFFFFFFFFFFFFFFFFFFFFFFF AND PUSH1 0x80 DUP2 PUSH20 0xFFFFFFFFFFFFFFFFFFFFFFFFFFFFFFFFFFFFFFFF AND DUP2 MSTORE POP POP PUSH1 0x80 MLOAD PUSH2 0xD56 PUSH2 0x62 PUSH0 CODECOPY PUSH0 DUP2 DUP2 PUSH2 0x3E5 ADD MSTORE PUSH2 0x6D4 ADD MSTORE PUSH2 0xD56 PUSH0 RETURN INVALID PUSH1 0x80 PUSH1 0x40 MSTORE PUSH1 0x4 CALLDATASIZE LT PUSH2 0x89 JUMPI PUSH0 CALLDATALOAD PUSH1 0xE0 SHR DUP1 PUSH4 0x98D5FDCA GT PUSH2 0x58 JUMPI DUP1 PUSH4 0x98D5FDCA EQ PUSH2 0x148 JUMPI DUP1 PUSH4 0xB60D4288 EQ PUSH2 0x172 JUMPI DUP1 PUSH4 0xB9F0BF66 EQ PUSH2 0x17C JUMPI DUP1 PUSH4 0xDBA6335F EQ PUSH2 0x1B8 JUMPI DUP1 PUSH4 0xDC0D3DFF EQ PUSH2 0x1E2 JUMPI PUSH2 0x98 JUMP JUMPDEST DUP1 PUSH4 0x47ABED7 EQ PUSH2 0xA2 JUMPI DUP1 PUSH4 0xD8E6E2C EQ PUSH2 0xDE JUMPI DUP1 PUSH4 0x3CCFD60B EQ PUSH2 0x108 JUMPI DUP1 PUSH4 0x6B69A592 EQ PUSH2 0x11E JUMPI PUSH2 0x98 JUMP JUMPDEST CALLDATASIZE PUSH2 0x98 JUMPI PUSH2 0x96 PUSH2 0x21E JUMP JUMPDEST STOP JUMPDEST PUSH2 0xA0 PUSH2 0x21E JUMP JUMPDEST STOP JUMPDEST CALLVALUE DUP1 ISZERO PUSH2 0xAD JUMPI PUSH0 PUSH0 REVERT JUMPDEST POP PUSH2 0xC8 PUSH1 0x4 DUP1 CALLDATASIZE SUB DUP2 ADD SWAP1 PUSH2 0xC3 SWAP2 SWAP1 PUSH2 0x809 JUMP JUMPDEST PUSH2 0x324 JUMP JUMPDEST PUSH1 0x40 MLOAD PUSH2 0xD5 SWAP2 SWAP1 PUSH2 0x843 JUMP JUMPDEST PUSH1 0x40 MLOAD DUP1 SWAP2 SUB SWAP1 RETURN JUMPDEST CALLVALUE DUP1 ISZERO PUSH2 0xE9 JUMPI PUSH0 PUSH0 REVERT JUMPDEST POP PUSH2 0xF2 PUSH2 0x35C JUMP JUMPDEST PUSH1 0x40 MLOAD PUSH2 0xFF SWAP2 SWAP1 PUSH2 0x843 JUMP JUMPDEST PUSH1 0x40 MLOAD DUP1 SWAP2 SUB SWAP1 RETURN JUMPDEST CALLVALUE DUP1 ISZERO PUSH2 0x113 JUMPI PUSH0 PUSH0 REVERT JUMPDEST POP PUSH2 0x11C PUSH2 0x3E3 JUMP JUMPDEST STOP JUMPDEST CALLVALUE DUP1 ISZERO PUSH2 0x129 JUMPI PUSH0 PUSH0 REVERT JUMPDEST POP PUSH2 0x132 PUSH2 0x611 JUMP JUMPDEST PUSH1 0x40 MLOAD PUSH2 0x13F SWAP2 SWAP1 PUSH2 0x843 JUMP JUMPDEST PUSH1 0x40 MLOAD DUP1 SWAP2 SUB SWAP1 RETURN JUMPDEST CALLVALUE DUP1 ISZERO PUSH2 0x153 JUMPI PUSH0 PUSH0 REVERT JUMPDEST POP PUSH2 0x15C PUSH2 0x61D JUMP JUMPDEST PUSH1 0x40 MLOAD PUSH2 0x169 SWAP2 SWAP1 PUSH2 0x843 JUMP JUMPDEST PUSH1 0x40 MLOAD DUP1 SWAP2 SUB SWAP1 RETURN JUMPDEST PUSH2 0x17A PUSH2 0x21E JUMP JUMPDEST STOP JUMPDEST CALLVALUE DUP1 ISZERO PUSH2 0x187 JUMPI PUSH0 PUSH0 REVERT JUMPDEST POP PUSH2 0x1A2 PUSH1 0x4 DUP1 CALLDATASIZE SUB DUP2 ADD SWAP1 PUSH2 0x19D SWAP2 SWAP1 PUSH2 0x8B6 JUMP JUMPDEST PUSH2 0x6BD JUMP JUMPDEST PUSH1 0x40 MLOAD PUSH2 0x1AF SWAP2 SWAP1 PUSH2 0x843 JUMP JUMPDEST PUSH1 0x40 MLOAD DUP1 SWAP2 SUB SWAP1 RETURN JUMPDEST CALLVALUE DUP1 ISZERO PUSH2 0x1C3 JUMPI PUSH0 PUSH0 REVERT JUMPDEST POP PUSH2 0x1CC PUSH2 0x6D2 JUMP JUMPDEST PUSH1 0x40 MLOAD PUSH2 0x1D9 SWAP2 SWAP1 PUSH2 0x8F0 JUMP JUMPDEST PUSH1 0x40 MLOAD DUP1 SWAP2 SUB SWAP1 RETURN JUMPDEST CALLVALUE DUP1 ISZERO PUSH2 0x1ED JUMPI PUSH0 PUSH0 REVERT JUMPDEST POP PUSH2 0x208 PUSH1 0x4 DUP1 CALLDATASIZE SUB DUP2 ADD SWAP1 PUSH2 0x203 SWAP2 SWAP1 PUSH2 0x809 JUMP JUMPDEST PUSH2 0x6F6 JUMP JUMPDEST PUSH1 0x40 MLOAD PUSH2 0x215 SWAP2 SWAP1 PUSH2 0x8F0 JUMP JUMPDEST PUSH1 0x40 MLOAD DUP1 SWAP2 SUB SWAP1 RETURN JUMPDEST PUSH8 0xDE0B6B3A7640000 PUSH2 0x230 CALLVALUE PUSH2 0x324 JUMP JUMPDEST GT PUSH2 0x270 JUMPI PUSH1 0x40 MLOAD PUSH32 0x8C379A000000000000000000000000000000000000000000000000000000000 DUP2 MSTORE PUSH1 0x4 ADD PUSH2 0x267 SWAP1 PUSH2 0x963 JUMP JUMPDEST PUSH1 0x40 MLOAD DUP1 SWAP2 SUB SWAP1 REVERT JUMPDEST PUSH0 CALLER SWAP1 DUP1 PUSH1 0x1 DUP2 SLOAD ADD DUP1 DUP3 SSTORE DUP1 SWAP2 POP POP PUSH1 0x1 SWAP1 SUB SWAP1 PUSH0 MSTORE PUSH1 0x20 PUSH0 KECCAK256 ADD PUSH0 SWAP1 SWAP2 SWAP1 SWAP2 SWAP1 SWAP2 PUSH2 0x100 EXP DUP2 SLOAD DUP2 PUSH20 0xFFFFFFFFFFFFFFFFFFFFFFFFFFFFFFFFFFFFFFFF MUL NOT AND SWAP1 DUP4 PUSH20 0xFFFFFFFFFFFFFFFFFFFFFFFFFFFFFFFFFFFFFFFF AND MUL OR SWAP1 SSTORE POP CALLVALUE PUSH1 0x1 PUSH0 CALLER PUSH20 0xFFFFFFFFFFFFFFFFFFFFFFFFFFFFFFFFFFFFFFFF AND PUSH20 0xFFFFFFFFFFFFFFFFFFFFFFFFFFFFFFFFFFFFFFFF AND DUP2 MSTORE PUSH1 0x20 ADD SWAP1 DUP2 MSTORE PUSH1 0x20 ADD PUSH0 KECCAK256 PUSH0 DUP3 DUP3 SLOAD PUSH2 0x31B SWAP2 SWAP1 PUSH2 0x9AE JUMP JUMPDEST SWAP3 POP POP DUP2 SWAP1 SSTORE POP JUMP JUMPDEST PUSH0 PUSH0 PUSH2 0x32E PUSH2 0x61D JUMP JUMPDEST SWAP1 POP PUSH0 PUSH8 0xDE0B6B3A7640000 DUP5 DUP4 PUSH2 0x346 SWAP2 SWAP1 PUSH2 0x9E1 JUMP JUMPDEST PUSH2 0x350 SWAP2 SWAP1 PUSH2 0xA4F JUMP JUMPDEST SWAP1 POP DUP1 SWAP3 POP POP POP SWAP2 SWAP1 POP JUMP JUMPDEST PUSH0 PUSH20 0xFEEFF7C3FB57D18C5C6CDD71E45D2D0B4F9377BF PUSH20 0xFFFFFFFFFFFFFFFFFFFFFFFFFFFFFFFFFFFFFFFF AND PUSH4 0x54FD4D50 PUSH1 0x40 MLOAD DUP2 PUSH4 0xFFFFFFFF AND PUSH1 0xE0 SHL DUP2 MSTORE PUSH1 0x4 ADD PUSH1 0x20 PUSH1 0x40 MLOAD DUP1 DUP4 SUB DUP2 DUP7 GAS STATICCALL ISZERO DUP1 ISZERO PUSH2 0x3BA JUMPI RETURNDATASIZE PUSH0 PUSH0 RETURNDATACOPY RETURNDATASIZE PUSH0 REVERT JUMPDEST POP POP POP POP PUSH1 0x40 MLOAD RETURNDATASIZE PUSH1 0x1F NOT PUSH1 0x1F DUP3 ADD AND DUP3 ADD DUP1 PUSH1 0x40 MSTORE POP DUP2 ADD SWAP1 PUSH2 0x3DE SWAP2 SWAP1 PUSH2 0xA93 JUMP JUMPDEST SWAP1 POP SWAP1 JUMP JUMPDEST PUSH32 0x0 PUSH20 0xFFFFFFFFFFFFFFFFFFFFFFFFFFFFFFFFFFFFFFFF AND CALLER PUSH20 0xFFFFFFFFFFFFFFFFFFFFFFFFFFFFFFFFFFFFFFFF AND SUB PUSH2 0x468 JUMPI PUSH1 0x40 MLOAD PUSH32 0x251C9D6300000000000000000000000000000000000000000000000000000000 DUP2 MSTORE PUSH1 0x4 ADD PUSH1 0x40 MLOAD DUP1 SWAP2 SUB SWAP1 REVERT JUMPDEST PUSH0 PUSH0 SWAP1 POP JUMPDEST PUSH0 DUP1 SLOAD SWAP1 POP DUP2 LT ISZERO PUSH2 0x507 JUMPI PUSH0 PUSH0 DUP3 DUP2 SLOAD DUP2 LT PUSH2 0x48D JUMPI PUSH2 0x48C PUSH2 0xABE JUMP JUMPDEST JUMPDEST SWAP1 PUSH0 MSTORE PUSH1 0x20 PUSH0 KECCAK256 ADD PUSH0 SWAP1 SLOAD SWAP1 PUSH2 0x100 EXP SWAP1 DIV PUSH20 0xFFFFFFFFFFFFFFFFFFFFFFFFFFFFFFFFFFFFFFFF AND SWAP1 POP PUSH0 PUSH1 0x1 PUSH0 DUP4 PUSH20 0xFFFFFFFFFFFFFFFFFFFFFFFFFFFFFFFFFFFFFFFF AND PUSH20 0xFFFFFFFFFFFFFFFFFFFFFFFFFFFFFFFFFFFFFFFF AND DUP2 MSTORE PUSH1 0x20 ADD SWAP1 DUP2 MSTORE PUSH1 0x20 ADD PUSH0 KECCAK256 DUP2 SWAP1 SSTORE POP POP DUP1 DUP1 PUSH1 0x1 ADD SWAP2 POP POP PUSH2 0x46D JUMP JUMPDEST POP PUSH0 PUSH8 0xFFFFFFFFFFFFFFFF DUP2 GT ISZERO PUSH2 0x522 JUMPI PUSH2 0x521 PUSH2 0xAEB JUMP JUMPDEST JUMPDEST PUSH1 0x40 MLOAD SWAP1 DUP1 DUP3 MSTORE DUP1 PUSH1 0x20 MUL PUSH1 0x20 ADD DUP3 ADD PUSH1 0x40 MSTORE DUP1 ISZERO PUSH2 0x550 JUMPI DUP2 PUSH1 0x20 ADD PUSH1 0x20 DUP3 MUL DUP1 CALLDATASIZE DUP4 CALLDATACOPY DUP1 DUP3 ADD SWAP2 POP POP SWAP1 POP JUMPDEST POP PUSH0 SWAP1 DUP1 MLOAD SWAP1 PUSH1 0x20 ADD SWAP1 PUSH2 0x565 SWAP3 SWAP2 SWAP1 PUSH2 0x730 JUMP JUMPDEST POP PUSH0 CALLER PUSH20 0xFFFFFFFFFFFFFFFFFFFFFFFFFFFFFFFFFFFFFFFF AND SELFBALANCE PUSH1 0x40 MLOAD PUSH2 0x58B SWAP1 PUSH2 0xB45 JUMP JUMPDEST PUSH0 PUSH1 0x40 MLOAD DUP1 DUP4 SUB DUP2 DUP6 DUP8 GAS CALL SWAP3 POP POP POP RETURNDATASIZE DUP1 PUSH0 DUP2 EQ PUSH2 0x5C5 JUMPI PUSH1 0x40 MLOAD SWAP2 POP PUSH1 0x1F NOT PUSH1 0x3F RETURNDATASIZE ADD AND DUP3 ADD PUSH1 0x40 MSTORE RETURNDATASIZE DUP3 MSTORE RETURNDATASIZE PUSH0 PUSH1 0x20 DUP5 ADD RETURNDATACOPY PUSH2 0x5CA JUMP JUMPDEST PUSH1 0x60 SWAP2 POP JUMPDEST POP POP SWAP1 POP DUP1 PUSH2 0x60E JUMPI PUSH1 0x40 MLOAD PUSH32 0x8C379A000000000000000000000000000000000000000000000000000000000 DUP2 MSTORE PUSH1 0x4 ADD PUSH2 0x605 SWAP1 PUSH2 0xBA3 JUMP JUMPDEST PUSH1 0x40 MLOAD DUP1 SWAP2 SUB SWAP1 REVERT JUMPDEST POP JUMP JUMPDEST PUSH8 0xDE0B6B3A7640000 DUP2 JUMP JUMPDEST PUSH0 PUSH0 PUSH20 0xFEEFF7C3FB57D18C5C6CDD71E45D2D0B4F9377BF PUSH20 0xFFFFFFFFFFFFFFFFFFFFFFFFFFFFFFFFFFFFFFFF AND PUSH4 0xFEAF968C PUSH1 0x40 MLOAD DUP2 PUSH4 0xFFFFFFFF AND PUSH1 0xE0 SHL DUP2 MSTORE PUSH1 0x4 ADD PUSH1 0xA0 PUSH1 0x40 MLOAD DUP1 DUP4 SUB DUP2 DUP7 GAS STATICCALL ISZERO DUP1 ISZERO PUSH2 0x67C JUMPI RETURNDATASIZE PUSH0 PUSH0 RETURNDATACOPY RETURNDATASIZE PUSH0 REVERT JUMPDEST POP POP POP POP PUSH1 0x40 MLOAD RETURNDATASIZE PUSH1 0x1F NOT PUSH1 0x1F DUP3 ADD AND DUP3 ADD DUP1 PUSH1 0x40 MSTORE POP DUP2 ADD SWAP1 PUSH2 0x6A0 SWAP2 SWAP1 PUSH2 0xC33 JUMP JUMPDEST POP POP POP SWAP2 POP POP PUSH5 0x2540BE400 DUP2 PUSH2 0x6B7 SWAP2 SWAP1 PUSH2 0xCAA JUMP JUMPDEST SWAP2 POP POP SWAP1 JUMP JUMPDEST PUSH1 0x1 PUSH1 0x20 MSTORE DUP1 PUSH0 MSTORE PUSH1 0x40 PUSH0 KECCAK256 PUSH0 SWAP2 POP SWAP1 POP SLOAD DUP2 JUMP JUMPDEST PUSH32 0x0 DUP2 JUMP JUMPDEST PUSH0 DUP2 DUP2 SLOAD DUP2 LT PUSH2 0x704 JUMPI PUSH0 DUP1 REVERT JUMPDEST SWAP1 PUSH0 MSTORE PUSH1 0x20 PUSH0 KECCAK256 ADD PUSH0 SWAP2 POP SLOAD SWAP1 PUSH2 0x100 EXP SWAP1 DIV PUSH20 0xFFFFFFFFFFFFFFFFFFFFFFFFFFFFFFFFFFFFFFFF AND DUP2 JUMP JUMPDEST DUP3 DUP1 SLOAD DUP3 DUP3 SSTORE SWAP1 PUSH0 MSTORE PUSH1 0x20 PUSH0 KECCAK256 SWAP1 DUP2 ADD SWAP3 DUP3 ISZERO PUSH2 0x7A6 JUMPI SWAP2 PUSH1 0x20 MUL DUP3 ADD JUMPDEST DUP3 DUP2 GT ISZERO PUSH2 0x7A5 JUMPI DUP3 MLOAD DUP3 PUSH0 PUSH2 0x100 EXP DUP2 SLOAD DUP2 PUSH20 0xFFFFFFFFFFFFFFFFFFFFFFFFFFFFFFFFFFFFFFFF MUL NOT AND SWAP1 DUP4 PUSH20 0xFFFFFFFFFFFFFFFFFFFFFFFFFFFFFFFFFFFFFFFF AND MUL OR SWAP1 SSTORE POP SWAP2 PUSH1 0x20 ADD SWAP2 SWAP1 PUSH1 0x1 ADD SWAP1 PUSH2 0x74E JUMP JUMPDEST JUMPDEST POP SWAP1 POP PUSH2 0x7B3 SWAP2 SWAP1 PUSH2 0x7B7 JUMP JUMPDEST POP SWAP1 JUMP JUMPDEST JUMPDEST DUP1 DUP3 GT ISZERO PUSH2 0x7CE JUMPI PUSH0 DUP2 PUSH0 SWAP1 SSTORE POP PUSH1 0x1 ADD PUSH2 0x7B8 JUMP JUMPDEST POP SWAP1 JUMP JUMPDEST PUSH0 PUSH0 REVERT JUMPDEST PUSH0 DUP2 SWAP1 POP SWAP2 SWAP1 POP JUMP JUMPDEST PUSH2 0x7E8 DUP2 PUSH2 0x7D6 JUMP JUMPDEST DUP2 EQ PUSH2 0x7F2 JUMPI PUSH0 PUSH0 REVERT JUMPDEST POP JUMP JUMPDEST PUSH0 DUP2 CALLDATALOAD SWAP1 POP PUSH2 0x803 DUP2 PUSH2 0x7DF JUMP JUMPDEST SWAP3 SWAP2 POP POP JUMP JUMPDEST PUSH0 PUSH1 0x20 DUP3 DUP5 SUB SLT ISZERO PUSH2 0x81E JUMPI PUSH2 0x81D PUSH2 0x7D2 JUMP JUMPDEST JUMPDEST PUSH0 PUSH2 0x82B DUP5 DUP3 DUP6 ADD PUSH2 0x7F5 JUMP JUMPDEST SWAP2 POP POP SWAP3 SWAP2 POP POP JUMP JUMPDEST PUSH2 0x83D DUP2 PUSH2 0x7D6 JUMP JUMPDEST DUP3 MSTORE POP POP JUMP JUMPDEST PUSH0 PUSH1 0x20 DUP3 ADD SWAP1 POP PUSH2 0x856 PUSH0 DUP4 ADD DUP5 PUSH2 0x834 JUMP JUMPDEST SWAP3 SWAP2 POP POP JUMP JUMPDEST PUSH0 PUSH20 0xFFFFFFFFFFFFFFFFFFFFFFFFFFFFFFFFFFFFFFFF DUP3 AND SWAP1 POP SWAP2 SWAP1 POP JUMP JUMPDEST PUSH0 PUSH2 0x885 DUP3 PUSH2 0x85C JUMP JUMPDEST SWAP1 POP SWAP2 SWAP1 POP JUMP JUMPDEST PUSH2 0x895 DUP2 PUSH2 0x87B JUMP JUMPDEST DUP2 EQ PUSH2 0x89F JUMPI PUSH0 PUSH0 REVERT JUMPDEST POP JUMP JUMPDEST PUSH0 DUP2 CALLDATALOAD SWAP1 POP PUSH2 0x8B0 DUP2 PUSH2 0x88C JUMP JUMPDEST SWAP3 SWAP2 POP POP JUMP JUMPDEST PUSH0 PUSH1 0x20 DUP3 DUP5 SUB SLT ISZERO PUSH2 0x8CB JUMPI PUSH2 0x8CA PUSH2 0x7D2 JUMP JUMPDEST JUMPDEST PUSH0 PUSH2 0x8D8 DUP5 DUP3 DUP6 ADD PUSH2 0x8A2 JUMP JUMPDEST SWAP2 POP POP SWAP3 SWAP2 POP POP JUMP JUMPDEST PUSH2 0x8EA DUP2 PUSH2 0x87B JUMP JUMPDEST DUP3 MSTORE POP POP JUMP JUMPDEST PUSH0 PUSH1 0x20 DUP3 ADD SWAP1 POP PUSH2 0x903 PUSH0 DUP4 ADD DUP5 PUSH2 0x8E1 JUMP JUMPDEST SWAP3 SWAP2 POP POP JUMP JUMPDEST PUSH0 DUP3 DUP3 MSTORE PUSH1 0x20 DUP3 ADD SWAP1 POP SWAP3 SWAP2 POP POP JUMP JUMPDEST PUSH32 0x4E6F206D696E696D756D20616D6F756E742073656E7400000000000000000000 PUSH0 DUP3 ADD MSTORE POP JUMP JUMPDEST PUSH0 PUSH2 0x94D PUSH1 0x16 DUP4 PUSH2 0x909 JUMP JUMPDEST SWAP2 POP PUSH2 0x958 DUP3 PUSH2 0x919 JUMP JUMPDEST PUSH1 0x20 DUP3 ADD SWAP1 POP SWAP2 SWAP1 POP JUMP JUMPDEST PUSH0 PUSH1 0x20 DUP3 ADD SWAP1 POP DUP2 DUP2 SUB PUSH0 DUP4 ADD MSTORE PUSH2 0x97A DUP2 PUSH2 0x941 JUMP JUMPDEST SWAP1 POP SWAP2 SWAP1 POP JUMP JUMPDEST PUSH32 0x4E487B7100000000000000000000000000000000000000000000000000000000 PUSH0 MSTORE PUSH1 0x11 PUSH1 0x4 MSTORE PUSH1 0x24 PUSH0 REVERT JUMPDEST PUSH0 PUSH2 0x9B8 DUP3 PUSH2 0x7D6 JUMP JUMPDEST SWAP2 POP PUSH2 0x9C3 DUP4 PUSH2 0x7D6 JUMP JUMPDEST SWAP3 POP DUP3 DUP3 ADD SWAP1 POP DUP1 DUP3 GT ISZERO PUSH2 0x9DB JUMPI PUSH2 0x9DA PUSH2 0x981 JUMP JUMPDEST JUMPDEST SWAP3 SWAP2 POP POP JUMP JUMPDEST PUSH0 PUSH2 0x9EB DUP3 PUSH2 0x7D6 JUMP JUMPDEST SWAP2 POP PUSH2 0x9F6 DUP4 PUSH2 0x7D6 JUMP JUMPDEST SWAP3 POP DUP3 DUP3 MUL PUSH2 0xA04 DUP2 PUSH2 0x7D6 JUMP JUMPDEST SWAP2 POP DUP3 DUP3 DIV DUP5 EQ DUP4 ISZERO OR PUSH2 0xA1B JUMPI PUSH2 0xA1A PUSH2 0x981 JUMP JUMPDEST JUMPDEST POP SWAP3 SWAP2 POP POP JUMP JUMPDEST PUSH32 0x4E487B7100000000000000000000000000000000000000000000000000000000 PUSH0 MSTORE PUSH1 0x12 PUSH1 0x4 MSTORE PUSH1 0x24 PUSH0 REVERT JUMPDEST PUSH0 PUSH2 0xA59 DUP3 PUSH2 0x7D6 JUMP JUMPDEST SWAP2 POP PUSH2 0xA64 DUP4 PUSH2 0x7D6 JUMP JUMPDEST SWAP3 POP DUP3 PUSH2 0xA74 JUMPI PUSH2 0xA73 PUSH2 0xA22 JUMP JUMPDEST JUMPDEST DUP3 DUP3 DIV SWAP1 POP SWAP3 SWAP2 POP POP JUMP JUMPDEST PUSH0 DUP2 MLOAD SWAP1 POP PUSH2 0xA8D DUP2 PUSH2 0x7DF JUMP JUMPDEST SWAP3 SWAP2 POP POP JUMP JUMPDEST PUSH0 PUSH1 0x20 DUP3 DUP5 SUB SLT ISZERO PUSH2 0xAA8 JUMPI PUSH2 0xAA7 PUSH2 0x7D2 JUMP JUMPDEST JUMPDEST PUSH0 PUSH2 0xAB5 DUP5 DUP3 DUP6 ADD PUSH2 0xA7F JUMP JUMPDEST SWAP2 POP POP SWAP3 SWAP2 POP POP JUMP JUMPDEST PUSH32 0x4E487B7100000000000000000000000000000000000000000000000000000000 PUSH0 MSTORE PUSH1 0x32 PUSH1 0x4 MSTORE PUSH1 0x24 PUSH0 REVERT JUMPDEST PUSH32 0x4E487B7100000000000000000000000000000000000000000000000000000000 PUSH0 MSTORE PUSH1 0x41 PUSH1 0x4 MSTORE PUSH1 0x24 PUSH0 REVERT JUMPDEST PUSH0 DUP2 SWAP1 POP SWAP3 SWAP2 POP POP JUMP JUMPDEST POP JUMP JUMPDEST PUSH0 PUSH2 0xB30 PUSH0 DUP4 PUSH2 0xB18 JUMP JUMPDEST SWAP2 POP PUSH2 0xB3B DUP3 PUSH2 0xB22 JUMP JUMPDEST PUSH0 DUP3 ADD SWAP1 POP SWAP2 SWAP1 POP JUMP JUMPDEST PUSH0 PUSH2 0xB4F DUP3 PUSH2 0xB25 JUMP JUMPDEST SWAP2 POP DUP2 SWAP1 POP SWAP2 SWAP1 POP JUMP JUMPDEST PUSH32 0x43616C6C204661696C6564000000000000000000000000000000000000000000 PUSH0 DUP3 ADD MSTORE POP JUMP JUMPDEST PUSH0 PUSH2 0xB8D PUSH1 0xB DUP4 PUSH2 0x909 JUMP JUMPDEST SWAP2 POP PUSH2 0xB98 DUP3 PUSH2 0xB59 JUMP JUMPDEST PUSH1 0x20 DUP3 ADD SWAP1 POP SWAP2 SWAP1 POP JUMP JUMPDEST PUSH0 PUSH1 0x20 DUP3 ADD SWAP1 POP DUP2 DUP2 SUB PUSH0 DUP4 ADD MSTORE PUSH2 0xBBA DUP2 PUSH2 0xB81 JUMP JUMPDEST SWAP1 POP SWAP2 SWAP1 POP JUMP JUMPDEST PUSH0 PUSH10 0xFFFFFFFFFFFFFFFFFFFF DUP3 AND SWAP1 POP SWAP2 SWAP1 POP JUMP JUMPDEST PUSH2 0xBDF DUP2 PUSH2 0xBC1 JUMP JUMPDEST DUP2 EQ PUSH2 0xBE9 JUMPI PUSH0 PUSH0 REVERT JUMPDEST POP JUMP JUMPDEST PUSH0 DUP2 MLOAD SWAP1 POP PUSH2 0xBFA DUP2 PUSH2 0xBD6 JUMP JUMPDEST SWAP3 SWAP2 POP POP JUMP JUMPDEST PUSH0 DUP2 SWAP1 POP SWAP2 SWAP1 POP JUMP JUMPDEST PUSH2 0xC12 DUP2 PUSH2 0xC00 JUMP JUMPDEST DUP2 EQ PUSH2 0xC1C JUMPI PUSH0 PUSH0 REVERT JUMPDEST POP JUMP JUMPDEST PUSH0 DUP2 MLOAD SWAP1 POP PUSH2 0xC2D DUP2 PUSH2 0xC09 JUMP JUMPDEST SWAP3 SWAP2 POP POP JUMP JUMPDEST PUSH0 PUSH0 PUSH0 PUSH0 PUSH0 PUSH1 0xA0 DUP7 DUP9 SUB SLT ISZERO PUSH2 0xC4C JUMPI PUSH2 0xC4B PUSH2 0x7D2 JUMP JUMPDEST JUMPDEST PUSH0 PUSH2 0xC59 DUP9 DUP3 DUP10 ADD PUSH2 0xBEC JUMP JUMPDEST SWAP6 POP POP PUSH1 0x20 PUSH2 0xC6A DUP9 DUP3 DUP10 ADD PUSH2 0xC1F JUMP JUMPDEST SWAP5 POP POP PUSH1 0x40 PUSH2 0xC7B DUP9 DUP3 DUP10 ADD PUSH2 0xA7F JUMP JUMPDEST SWAP4 POP POP PUSH1 0x60 PUSH2 0xC8C DUP9 DUP3 DUP10 ADD PUSH2 0xA7F JUMP JUMPDEST SWAP3 POP POP PUSH1 0x80 PUSH2 0xC9D DUP9 DUP3 DUP10 ADD PUSH2 0xBEC JUMP JUMPDEST SWAP2 POP POP SWAP3 SWAP6 POP SWAP3 SWAP6 SWAP1 SWAP4 POP JUMP JUMPDEST PUSH0 PUSH2 0xCB4 DUP3 PUSH2 0xC00 JUMP JUMPDEST SWAP2 POP PUSH2 0xCBF DUP4 PUSH2 0xC00 JUMP JUMPDEST SWAP3 POP DUP3 DUP3 MUL PUSH2 0xCCD DUP2 PUSH2 0xC00 JUMP JUMPDEST SWAP2 POP PUSH32 0x8000000000000000000000000000000000000000000000000000000000000000 DUP5 EQ PUSH0 DUP5 SLT AND ISZERO PUSH2 0xD04 JUMPI PUSH2 0xD03 PUSH2 0x981 JUMP JUMPDEST JUMPDEST DUP3 DUP3 SDIV DUP5 EQ DUP4 ISZERO OR PUSH2 0xD19 JUMPI PUSH2 0xD18 PUSH2 0x981 JUMP JUMPDEST JUMPDEST POP SWAP3 SWAP2 POP POP JUMP INVALID LOG2 PUSH5 0x6970667358 0x22 SLT KECCAK256 PUSH18 0xA26B40AB38EDE19D432E91329BF5FB2BA3E5 GASPRICE DUP16 SDIV PUSH22 0x5A2267BFED9833347264736F6C634300081E00330000 "
				},
				"gasEstimates": {
					"creation": {
						"codeDepositCost": "682800",
						"executionCost": "infinite",
						"totalCost": "infinite"
					},
					"external": {
						"": "infinite",
						"MINIMUM_USD()": "392",
						"amount(address)": "2846",
						"fund()": "infinite",
						"funders(uint256)": "5031",
						"getConversion(uint256)": "infinite",
						"getPrice()": "infinite",
						"getVersion()": "infinite",
						"i_owner()": "infinite",
						"withdraw()": "infinite"
					}
				},
				"methodIdentifiers": {
					"MINIMUM_USD()": "6b69a592",
					"amount(address)": "b9f0bf66",
					"fund()": "b60d4288",
					"funders(uint256)": "dc0d3dff",
					"getConversion(uint256)": "047abed7",
					"getPrice()": "98d5fdca",
					"getVersion()": "0d8e6e2c",
					"i_owner()": "dba6335f",
					"withdraw()": "3ccfd60b"
				}
			},
			"storageLayout": {
				"storage": [
					{
						"astId": 57,
						"contract": "contracts/FundMe.sol:FundMe",
						"label": "funders",
						"offset": 0,
						"slot": "0",
						"type": "t_array(t_address)dyn_storage"
					},
					{
						"astId": 61,
						"contract": "contracts/FundMe.sol:FundMe",
						"label": "amount",
						"offset": 0,
						"slot": "1",
						"type": "t_mapping(t_address,t_uint256)"
					}
				],
				"types": {
					"t_address": {
						"encoding": "inplace",
						"label": "address",
						"numberOfBytes": "20"
					},
					"t_array(t_address)dyn_storage": {
						"base": "t_address",
						"encoding": "dynamic_array",
						"label": "address[]",
						"numberOfBytes": "32"
					},
					"t_mapping(t_address,t_uint256)": {
						"encoding": "mapping",
						"key": "t_address",
						"label": "mapping(address => uint256)",
						"numberOfBytes": "32",
						"value": "t_uint256"
					},
					"t_uint256": {
						"encoding": "inplace",
						"label": "uint256",
						"numberOfBytes": "32"
					}
				}
			},
			"userdoc": {
				"kind": "user",
				"methods": {},
				"version": 1
			}
		}
	}
}