{
  "address": "0x551AE71732BbCf79d239def7E4AAB4A899370d17",
  "abi": [
    {
      "inputs": [
        {
          "internalType": "address",
          "name": "priceFeedAddress",
          "type": "address"
        }
      ],
      "stateMutability": "nonpayable",
      "type": "constructor"
    },
    {
      "inputs": [],
      "name": "FundMe__notOwner",
      "type": "error"
    },
    {
      "stateMutability": "payable",
      "type": "fallback"
    },
    {
      "inputs": [],
      "name": "MINIMUM_USD",
      "outputs": [
        {
          "internalType": "uint256",
          "name": "",
          "type": "uint256"
        }
      ],
      "stateMutability": "view",
      "type": "function"
    },
    {
      "inputs": [],
      "name": "cheaperWithdraw",
      "outputs": [],
      "stateMutability": "nonpayable",
      "type": "function"
    },
    {
      "inputs": [],
      "name": "fund",
      "outputs": [],
      "stateMutability": "payable",
      "type": "function"
    },
    {
      "inputs": [
        {
          "internalType": "uint256",
          "name": "amount",
          "type": "uint256"
        }
      ],
      "name": "getDebugConversion",
      "outputs": [
        {
          "internalType": "uint256",
          "name": "",
          "type": "uint256"
        }
      ],
      "stateMutability": "view",
      "type": "function"
    },
    {
      "inputs": [
        {
          "internalType": "uint256",
          "name": "index",
          "type": "uint256"
        }
      ],
      "name": "getFunder",
      "outputs": [
        {
          "internalType": "address",
          "name": "",
          "type": "address"
        }
      ],
      "stateMutability": "view",
      "type": "function"
    },
    {
      "inputs": [
        {
          "internalType": "address",
          "name": "funder",
          "type": "address"
        }
      ],
      "name": "getFunderAmount",
      "outputs": [
        {
          "internalType": "uint256",
          "name": "",
          "type": "uint256"
        }
      ],
      "stateMutability": "view",
      "type": "function"
    },
    {
      "inputs": [],
      "name": "getOwner",
      "outputs": [
        {
          "internalType": "address",
          "name": "",
          "type": "address"
        }
      ],
      "stateMutability": "view",
      "type": "function"
    },
    {
      "inputs": [],
      "name": "getPriceFeed",
      "outputs": [
        {
          "internalType": "contract AggregatorV3Interface",
          "name": "",
          "type": "address"
        }
      ],
      "stateMutability": "view",
      "type": "function"
    },
    {
      "inputs": [],
      "name": "withdraw",
      "outputs": [],
      "stateMutability": "payable",
      "type": "function"
    },
    {
      "stateMutability": "payable",
      "type": "receive"
    }
  ],
  "transactionHash": "0x6bd7ce3b21972a3b16dd3af4d7a96648aae4da09d191fa38eb8889ecbbf0cdb4",
  "args": [
    "0x694AA1769357215DE4FAC081bf1f309aDC325306"
  ],
  "numDeployments": 1,
  "solcInputHash": "fe2f7a38518a63ae1333febd81ab7c3b",
  "bytecode": "0x60a06040523480156200001157600080fd5b50604051620013ba380380620013ba83398181016040528101906200003791906200011d565b3373ffffffffffffffffffffffffffffffffffffffff1660808173ffffffffffffffffffffffffffffffffffffffff168152505080600260006101000a81548173ffffffffffffffffffffffffffffffffffffffff021916908373ffffffffffffffffffffffffffffffffffffffff160217905550506200014f565b600080fd5b600073ffffffffffffffffffffffffffffffffffffffff82169050919050565b6000620000e582620000b8565b9050919050565b620000f781620000d8565b81146200010357600080fd5b50565b6000815190506200011781620000ec565b92915050565b600060208284031215620001365762000135620000b3565b5b6000620001468482850162000106565b91505092915050565b6080516112336200018760003960008181610423015281816104490152818161073801528181610800015261082601526112336000f3fe60806040526004361061008a5760003560e01c80639e87a5cd116100595780639e87a5cd14610140578063b60d42881461016b578063be2693f014610175578063d7b4750c1461018c578063dec91edc146101c957610099565b80633ccfd60b146100a35780635af9804f146100ad5780636b69a592146100ea578063893d20e81461011557610099565b3661009957610097610206565b005b6100a1610206565b005b6100ab6103a9565b005b3480156100b957600080fd5b506100d460048036038101906100cf9190610d20565b610681565b6040516100e19190610d5c565b60405180910390f35b3480156100f657600080fd5b506100ff610728565b60405161010c9190610d5c565b60405180910390f35b34801561012157600080fd5b5061012a610734565b6040516101379190610db8565b60405180910390f35b34801561014c57600080fd5b5061015561075c565b6040516101629190610e32565b60405180910390f35b610173610206565b005b34801561018157600080fd5b5061018a610786565b005b34801561019857600080fd5b506101b360048036038101906101ae9190610d20565b610ac2565b6040516101c09190610db8565b60405180910390f35b3480156101d557600080fd5b506101f060048036038101906101eb9190610e79565b610b09565b6040516101fd9190610d5c565b60405180910390f35b6706f05b59d3b200003473d4D3076Ce4ea824beC13Dd5eCa6A4F6167bFFF6363eed231849091600260009054906101000a900473ffffffffffffffffffffffffffffffffffffffff166040518363ffffffff1660e01b815260040161026c929190610ec4565b602060405180830381865af4158015610289573d6000803e3d6000fd5b505050506040513d601f19601f820116820180604052508101906102ad9190610f02565b10156102ee576040517f08c379a00000000000000000000000000000000000000000000000000000000081526004016102e590610f8c565b60405180910390fd5b6000339080600181540180825580915050600190039060005260206000200160009091909190916101000a81548173ffffffffffffffffffffffffffffffffffffffff021916908373ffffffffffffffffffffffffffffffffffffffff16021790555034600160003373ffffffffffffffffffffffffffffffffffffffff1673ffffffffffffffffffffffffffffffffffffffff16815260200190815260200160002060008282546103a09190610fdb565b92505081905550565b6103e86040518060400160405280600e81526020017f6d73672e73656e6465723a20257300000000000000000000000000000000000081525033610b52565b6104476040518060400160405280600b81526020017f695f6f776e65723a2025730000000000000000000000000000000000000000008152507f0000000000000000000000000000000000000000000000000000000000000000610b52565b7f000000000000000000000000000000000000000000000000000000000000000073ffffffffffffffffffffffffffffffffffffffff163373ffffffffffffffffffffffffffffffffffffffff16146104cc576040517f8186952400000000000000000000000000000000000000000000000000000000815260040160405180910390fd5b60005b6000805490508110156105715760008082815481106104f1576104f061100f565b5b9060005260206000200160009054906101000a900473ffffffffffffffffffffffffffffffffffffffff1690506000600160008373ffffffffffffffffffffffffffffffffffffffff1673ffffffffffffffffffffffffffffffffffffffff168152602001908152602001600020819055505080806001019150506104cf565b50600067ffffffffffffffff81111561058d5761058c61103e565b5b6040519080825280602002602001820160405280156105bb5781602001602082028036833780820191505090505b50600090805190602001906105d1929190610c34565b5060003373ffffffffffffffffffffffffffffffffffffffff16476040516105f89061109e565b60006040518083038185875af1925050503d8060008114610635576040519150601f19603f3d011682016040523d82523d6000602084013e61063a565b606091505b505090508061067e576040517f08c379a0000000000000000000000000000000000000000000000000000000008152600401610675906110ff565b60405180910390fd5b50565b60008173d4D3076Ce4ea824beC13Dd5eCa6A4F6167bFFF6363eed231849091600260009054906101000a900473ffffffffffffffffffffffffffffffffffffffff166040518363ffffffff1660e01b81526004016106e0929190610ec4565b602060405180830381865af41580156106fd573d6000803e3d6000fd5b505050506040513d601f19601f820116820180604052508101906107219190610f02565b9050919050565b6706f05b59d3b2000081565b60007f0000000000000000000000000000000000000000000000000000000000000000905090565b6000600260009054906101000a900473ffffffffffffffffffffffffffffffffffffffff16905090565b6107c56040518060400160405280600e81526020017f6d73672e73656e6465723a20257300000000000000000000000000000000000081525033610b52565b6108246040518060400160405280600b81526020017f695f6f776e65723a2025730000000000000000000000000000000000000000008152507f0000000000000000000000000000000000000000000000000000000000000000610b52565b7f000000000000000000000000000000000000000000000000000000000000000073ffffffffffffffffffffffffffffffffffffffff163373ffffffffffffffffffffffffffffffffffffffff16146108a9576040517f8186952400000000000000000000000000000000000000000000000000000000815260040160405180910390fd5b60008080548060200260200160405190810160405280929190818152602001828054801561092c57602002820191906000526020600020905b8160009054906101000a900473ffffffffffffffffffffffffffffffffffffffff1673ffffffffffffffffffffffffffffffffffffffff16815260200190600101908083116108e2575b5050505050905060005b81518110156109b15760008282815181106109545761095361100f565b5b602002602001015190506000600160008373ffffffffffffffffffffffffffffffffffffffff1673ffffffffffffffffffffffffffffffffffffffff16815260200190815260200160002081905550508080600101915050610936565b50600067ffffffffffffffff8111156109cd576109cc61103e565b5b6040519080825280602002602001820160405280156109fb5781602001602082028036833780820191505090505b5060009080519060200190610a11929190610c34565b5060003373ffffffffffffffffffffffffffffffffffffffff1647604051610a389061109e565b60006040518083038185875af1925050503d8060008114610a75576040519150601f19603f3d011682016040523d82523d6000602084013e610a7a565b606091505b5050905080610abe576040517f08c379a0000000000000000000000000000000000000000000000000000000008152600401610ab5906110ff565b60405180910390fd5b5050565b6000808281548110610ad757610ad661100f565b5b9060005260206000200160009054906101000a900473ffffffffffffffffffffffffffffffffffffffff169050919050565b6000600160008373ffffffffffffffffffffffffffffffffffffffff1673ffffffffffffffffffffffffffffffffffffffff168152602001908152602001600020549050919050565b610bea8282604051602401610b6892919061119e565b6040516020818303038152906040527f319af333000000000000000000000000000000000000000000000000000000007bffffffffffffffffffffffffffffffffffffffffffffffffffffffff19166020820180517bffffffffffffffffffffffffffffffffffffffffffffffffffffffff8381831617835250505050610bee565b5050565b610c0581610bfd610c08610c29565b63ffffffff16565b50565b60006a636f6e736f6c652e6c6f679050600080835160208501845afa505050565b610cbe819050919050565b828054828255906000526020600020908101928215610cad579160200282015b82811115610cac5782518260006101000a81548173ffffffffffffffffffffffffffffffffffffffff021916908373ffffffffffffffffffffffffffffffffffffffff16021790555091602001919060010190610c54565b5b509050610cba9190610cc8565b5090565b610cc66111ce565b565b5b80821115610ce1576000816000905550600101610cc9565b5090565b600080fd5b6000819050919050565b610cfd81610cea565b8114610d0857600080fd5b50565b600081359050610d1a81610cf4565b92915050565b600060208284031215610d3657610d35610ce5565b5b6000610d4484828501610d0b565b91505092915050565b610d5681610cea565b82525050565b6000602082019050610d716000830184610d4d565b92915050565b600073ffffffffffffffffffffffffffffffffffffffff82169050919050565b6000610da282610d77565b9050919050565b610db281610d97565b82525050565b6000602082019050610dcd6000830184610da9565b92915050565b6000819050919050565b6000610df8610df3610dee84610d77565b610dd3565b610d77565b9050919050565b6000610e0a82610ddd565b9050919050565b6000610e1c82610dff565b9050919050565b610e2c81610e11565b82525050565b6000602082019050610e476000830184610e23565b92915050565b610e5681610d97565b8114610e6157600080fd5b50565b600081359050610e7381610e4d565b92915050565b600060208284031215610e8f57610e8e610ce5565b5b6000610e9d84828501610e64565b91505092915050565b610eaf81610cea565b82525050565b610ebe81610e11565b82525050565b6000604082019050610ed96000830185610ea6565b610ee66020830184610eb5565b9392505050565b600081519050610efc81610cf4565b92915050565b600060208284031215610f1857610f17610ce5565b5b6000610f2684828501610eed565b91505092915050565b600082825260208201905092915050565b7f4e6f206d696e696d756d20616d6f756e742073656e7400000000000000000000600082015250565b6000610f76601683610f2f565b9150610f8182610f40565b602082019050919050565b60006020820190508181036000830152610fa581610f69565b9050919050565b7f4e487b7100000000000000000000000000000000000000000000000000000000600052601160045260246000fd5b6000610fe682610cea565b9150610ff183610cea565b925082820190508082111561100957611008610fac565b5b92915050565b7f4e487b7100000000000000000000000000000000000000000000000000000000600052603260045260246000fd5b7f4e487b7100000000000000000000000000000000000000000000000000000000600052604160045260246000fd5b600081905092915050565b50565b600061108860008361106d565b915061109382611078565b600082019050919050565b60006110a98261107b565b9150819050919050565b7f43616c6c204661696c6564000000000000000000000000000000000000000000600082015250565b60006110e9600b83610f2f565b91506110f4826110b3565b602082019050919050565b60006020820190508181036000830152611118816110dc565b9050919050565b600081519050919050565b60005b8381101561114857808201518184015260208101905061112d565b60008484015250505050565b6000601f19601f8301169050919050565b60006111708261111f565b61117a8185610f2f565b935061118a81856020860161112a565b61119381611154565b840191505092915050565b600060408201905081810360008301526111b88185611165565b90506111c76020830184610da9565b9392505050565b7f4e487b7100000000000000000000000000000000000000000000000000000000600052605160045260246000fdfea264697066735822122071e7ae27adff6b78a9286be7f1c366c4976bf56f91a8d82c6a821730c6d0f91e64736f6c63430008180033",
  "deployedBytecode": "0x60806040526004361061008a5760003560e01c80639e87a5cd116100595780639e87a5cd14610140578063b60d42881461016b578063be2693f014610175578063d7b4750c1461018c578063dec91edc146101c957610099565b80633ccfd60b146100a35780635af9804f146100ad5780636b69a592146100ea578063893d20e81461011557610099565b3661009957610097610206565b005b6100a1610206565b005b6100ab6103a9565b005b3480156100b957600080fd5b506100d460048036038101906100cf9190610d20565b610681565b6040516100e19190610d5c565b60405180910390f35b3480156100f657600080fd5b506100ff610728565b60405161010c9190610d5c565b60405180910390f35b34801561012157600080fd5b5061012a610734565b6040516101379190610db8565b60405180910390f35b34801561014c57600080fd5b5061015561075c565b6040516101629190610e32565b60405180910390f35b610173610206565b005b34801561018157600080fd5b5061018a610786565b005b34801561019857600080fd5b506101b360048036038101906101ae9190610d20565b610ac2565b6040516101c09190610db8565b60405180910390f35b3480156101d557600080fd5b506101f060048036038101906101eb9190610e79565b610b09565b6040516101fd9190610d5c565b60405180910390f35b6706f05b59d3b200003473__$ee5333b9f3bf6448fe7cd0ff78e98acd66$__63eed231849091600260009054906101000a900473ffffffffffffffffffffffffffffffffffffffff166040518363ffffffff1660e01b815260040161026c929190610ec4565b602060405180830381865af4158015610289573d6000803e3d6000fd5b505050506040513d601f19601f820116820180604052508101906102ad9190610f02565b10156102ee576040517f08c379a00000000000000000000000000000000000000000000000000000000081526004016102e590610f8c565b60405180910390fd5b6000339080600181540180825580915050600190039060005260206000200160009091909190916101000a81548173ffffffffffffffffffffffffffffffffffffffff021916908373ffffffffffffffffffffffffffffffffffffffff16021790555034600160003373ffffffffffffffffffffffffffffffffffffffff1673ffffffffffffffffffffffffffffffffffffffff16815260200190815260200160002060008282546103a09190610fdb565b92505081905550565b6103e86040518060400160405280600e81526020017f6d73672e73656e6465723a20257300000000000000000000000000000000000081525033610b52565b6104476040518060400160405280600b81526020017f695f6f776e65723a2025730000000000000000000000000000000000000000008152507f0000000000000000000000000000000000000000000000000000000000000000610b52565b7f000000000000000000000000000000000000000000000000000000000000000073ffffffffffffffffffffffffffffffffffffffff163373ffffffffffffffffffffffffffffffffffffffff16146104cc576040517f8186952400000000000000000000000000000000000000000000000000000000815260040160405180910390fd5b60005b6000805490508110156105715760008082815481106104f1576104f061100f565b5b9060005260206000200160009054906101000a900473ffffffffffffffffffffffffffffffffffffffff1690506000600160008373ffffffffffffffffffffffffffffffffffffffff1673ffffffffffffffffffffffffffffffffffffffff168152602001908152602001600020819055505080806001019150506104cf565b50600067ffffffffffffffff81111561058d5761058c61103e565b5b6040519080825280602002602001820160405280156105bb5781602001602082028036833780820191505090505b50600090805190602001906105d1929190610c34565b5060003373ffffffffffffffffffffffffffffffffffffffff16476040516105f89061109e565b60006040518083038185875af1925050503d8060008114610635576040519150601f19603f3d011682016040523d82523d6000602084013e61063a565b606091505b505090508061067e576040517f08c379a0000000000000000000000000000000000000000000000000000000008152600401610675906110ff565b60405180910390fd5b50565b60008173__$ee5333b9f3bf6448fe7cd0ff78e98acd66$__63eed231849091600260009054906101000a900473ffffffffffffffffffffffffffffffffffffffff166040518363ffffffff1660e01b81526004016106e0929190610ec4565b602060405180830381865af41580156106fd573d6000803e3d6000fd5b505050506040513d601f19601f820116820180604052508101906107219190610f02565b9050919050565b6706f05b59d3b2000081565b60007f0000000000000000000000000000000000000000000000000000000000000000905090565b6000600260009054906101000a900473ffffffffffffffffffffffffffffffffffffffff16905090565b6107c56040518060400160405280600e81526020017f6d73672e73656e6465723a20257300000000000000000000000000000000000081525033610b52565b6108246040518060400160405280600b81526020017f695f6f776e65723a2025730000000000000000000000000000000000000000008152507f0000000000000000000000000000000000000000000000000000000000000000610b52565b7f000000000000000000000000000000000000000000000000000000000000000073ffffffffffffffffffffffffffffffffffffffff163373ffffffffffffffffffffffffffffffffffffffff16146108a9576040517f8186952400000000000000000000000000000000000000000000000000000000815260040160405180910390fd5b60008080548060200260200160405190810160405280929190818152602001828054801561092c57602002820191906000526020600020905b8160009054906101000a900473ffffffffffffffffffffffffffffffffffffffff1673ffffffffffffffffffffffffffffffffffffffff16815260200190600101908083116108e2575b5050505050905060005b81518110156109b15760008282815181106109545761095361100f565b5b602002602001015190506000600160008373ffffffffffffffffffffffffffffffffffffffff1673ffffffffffffffffffffffffffffffffffffffff16815260200190815260200160002081905550508080600101915050610936565b50600067ffffffffffffffff8111156109cd576109cc61103e565b5b6040519080825280602002602001820160405280156109fb5781602001602082028036833780820191505090505b5060009080519060200190610a11929190610c34565b5060003373ffffffffffffffffffffffffffffffffffffffff1647604051610a389061109e565b60006040518083038185875af1925050503d8060008114610a75576040519150601f19603f3d011682016040523d82523d6000602084013e610a7a565b606091505b5050905080610abe576040517f08c379a0000000000000000000000000000000000000000000000000000000008152600401610ab5906110ff565b60405180910390fd5b5050565b6000808281548110610ad757610ad661100f565b5b9060005260206000200160009054906101000a900473ffffffffffffffffffffffffffffffffffffffff169050919050565b6000600160008373ffffffffffffffffffffffffffffffffffffffff1673ffffffffffffffffffffffffffffffffffffffff168152602001908152602001600020549050919050565b610bea8282604051602401610b6892919061119e565b6040516020818303038152906040527f319af333000000000000000000000000000000000000000000000000000000007bffffffffffffffffffffffffffffffffffffffffffffffffffffffff19166020820180517bffffffffffffffffffffffffffffffffffffffffffffffffffffffff8381831617835250505050610bee565b5050565b610c0581610bfd610c08610c29565b63ffffffff16565b50565b60006a636f6e736f6c652e6c6f679050600080835160208501845afa505050565b610cbe819050919050565b828054828255906000526020600020908101928215610cad579160200282015b82811115610cac5782518260006101000a81548173ffffffffffffffffffffffffffffffffffffffff021916908373ffffffffffffffffffffffffffffffffffffffff16021790555091602001919060010190610c54565b5b509050610cba9190610cc8565b5090565b610cc66111ce565b565b5b80821115610ce1576000816000905550600101610cc9565b5090565b600080fd5b6000819050919050565b610cfd81610cea565b8114610d0857600080fd5b50565b600081359050610d1a81610cf4565b92915050565b600060208284031215610d3657610d35610ce5565b5b6000610d4484828501610d0b565b91505092915050565b610d5681610cea565b82525050565b6000602082019050610d716000830184610d4d565b92915050565b600073ffffffffffffffffffffffffffffffffffffffff82169050919050565b6000610da282610d77565b9050919050565b610db281610d97565b82525050565b6000602082019050610dcd6000830184610da9565b92915050565b6000819050919050565b6000610df8610df3610dee84610d77565b610dd3565b610d77565b9050919050565b6000610e0a82610ddd565b9050919050565b6000610e1c82610dff565b9050919050565b610e2c81610e11565b82525050565b6000602082019050610e476000830184610e23565b92915050565b610e5681610d97565b8114610e6157600080fd5b50565b600081359050610e7381610e4d565b92915050565b600060208284031215610e8f57610e8e610ce5565b5b6000610e9d84828501610e64565b91505092915050565b610eaf81610cea565b82525050565b610ebe81610e11565b82525050565b6000604082019050610ed96000830185610ea6565b610ee66020830184610eb5565b9392505050565b600081519050610efc81610cf4565b92915050565b600060208284031215610f1857610f17610ce5565b5b6000610f2684828501610eed565b91505092915050565b600082825260208201905092915050565b7f4e6f206d696e696d756d20616d6f756e742073656e7400000000000000000000600082015250565b6000610f76601683610f2f565b9150610f8182610f40565b602082019050919050565b60006020820190508181036000830152610fa581610f69565b9050919050565b7f4e487b7100000000000000000000000000000000000000000000000000000000600052601160045260246000fd5b6000610fe682610cea565b9150610ff183610cea565b925082820190508082111561100957611008610fac565b5b92915050565b7f4e487b7100000000000000000000000000000000000000000000000000000000600052603260045260246000fd5b7f4e487b7100000000000000000000000000000000000000000000000000000000600052604160045260246000fd5b600081905092915050565b50565b600061108860008361106d565b915061109382611078565b600082019050919050565b60006110a98261107b565b9150819050919050565b7f43616c6c204661696c6564000000000000000000000000000000000000000000600082015250565b60006110e9600b83610f2f565b91506110f4826110b3565b602082019050919050565b60006020820190508181036000830152611118816110dc565b9050919050565b600081519050919050565b60005b8381101561114857808201518184015260208101905061112d565b60008484015250505050565b6000601f19601f8301169050919050565b60006111708261111f565b61117a8185610f2f565b935061118a81856020860161112a565b61119381611154565b840191505092915050565b600060408201905081810360008301526111b88185611165565b90506111c76020830184610da9565b9392505050565b7f4e487b7100000000000000000000000000000000000000000000000000000000600052605160045260246000fdfea264697066735822122071e7ae27adff6b78a9286be7f1c366c4976bf56f91a8d82c6a821730c6d0f91e64736f6c63430008180033",
  "libraries": {
    "PriceConvertor": "0xd4D3076Ce4ea824beC13Dd5eCa6A4F6167bFFF63"
  },
  "devdoc": {
    "author": "Sourya Adhikary",
    "details": "this implements price feeds as our library",
    "kind": "dev",
    "methods": {
      "fund()": {
        "details": "this implements price feeds as our library"
      }
    },
    "title": "a contract for crowd funding",
    "version": 1
  },
  "userdoc": {
    "kind": "user",
    "methods": {
      "fund()": {
        "notice": "this function funds the contract"
      }
    },
    "notice": "this contract is to demo a sample funding contract",
    "version": 1
  },
  "storageLayout": {
    "storage": [
      {
        "astId": 63,
        "contract": "contracts/FundMe.sol:FundMe",
        "label": "s_funders",
        "offset": 0,
        "slot": "0",
        "type": "t_array(t_address)dyn_storage"
      },
      {
        "astId": 67,
        "contract": "contracts/FundMe.sol:FundMe",
        "label": "s_amount",
        "offset": 0,
        "slot": "1",
        "type": "t_mapping(t_address,t_uint256)"
      },
      {
        "astId": 72,
        "contract": "contracts/FundMe.sol:FundMe",
        "label": "s_priceFeed",
        "offset": 0,
        "slot": "2",
        "type": "t_contract(AggregatorV3Interface)45"
      }
    ],
    "types": {
      "t_address": {
        "encoding": "inplace",
        "label": "address",
        "numberOfBytes": "20"
      },
      "t_array(t_address)dyn_storage": {
        "base": "t_address",
        "encoding": "dynamic_array",
        "label": "address[]",
        "numberOfBytes": "32"
      },
      "t_contract(AggregatorV3Interface)45": {
        "encoding": "inplace",
        "label": "contract AggregatorV3Interface",
        "numberOfBytes": "20"
      },
      "t_mapping(t_address,t_uint256)": {
        "encoding": "mapping",
        "key": "t_address",
        "label": "mapping(address => uint256)",
        "numberOfBytes": "32",
        "value": "t_uint256"
      },
      "t_uint256": {
        "encoding": "inplace",
        "label": "uint256",
        "numberOfBytes": "32"
      }
    }
  }
}