{
  "address": "0xd4D3076Ce4ea824beC13Dd5eCa6A4F6167bFFF63",
  "abi": [
    {
      "inputs": [
        {
          "internalType": "uint256",
          "name": "ethAmount",
          "type": "uint256"
        },
        {
          "internalType": "contract AggregatorV3Interface",
          "name": "priceFeed",
          "type": "AggregatorV3Interface"
        }
      ],
      "name": "getConversion",
      "outputs": [
        {
          "internalType": "uint256",
          "name": "",
          "type": "uint256"
        }
      ],
      "stateMutability": "view",
      "type": "function"
    },
    {
      "inputs": [
        {
          "internalType": "contract AggregatorV3Interface",
          "name": "priceFeed",
          "type": "AggregatorV3Interface"
        }
      ],
      "name": "getPrice",
      "outputs": [
        {
          "internalType": "uint256",
          "name": "",
          "type": "uint256"
        }
      ],
      "stateMutability": "view",
      "type": "function"
    },
    {
      "inputs": [
        {
          "internalType": "contract AggregatorV3Interface",
          "name": "priceFeed",
          "type": "AggregatorV3Interface"
        }
      ],
      "name": "getVersion",
      "outputs": [
        {
          "internalType": "uint256",
          "name": "",
          "type": "uint256"
        }
      ],
      "stateMutability": "view",
      "type": "function"
    }
  ],
  "transactionHash": "0x291f2dea0ad251782b4ecbcc2f75e52ffe95d9d84d333fe47ee393d0d4986682",
  "args": [],
  "numDeployments": 1,
  "solcInputHash": "16ec4f854a1423e674a3c583fbad41fd",
  "bytecode": "0x61061b610053600b82828239805160001a607314610046577f4e487b7100000000000000000000000000000000000000000000000000000000600052600060045260246000fd5b30600052607381538281f3fe730000000000000000000000000000000000000000301460806040526004361061004b5760003560e01c8063ce639ce314610050578063eed2318414610080578063f6e04be8146100b0575b600080fd5b61006a6004803603810190610065919061029a565b6100e0565b60405161007791906102e0565b60405180910390f35b61009a60048036038101906100959190610327565b610171565b6040516100a791906102e0565b60405180910390f35b6100ca60048036038101906100c5919061029a565b6101ad565b6040516100d791906102e0565b60405180910390f35b6000808273ffffffffffffffffffffffffffffffffffffffff1663feaf968c6040518163ffffffff1660e01b815260040160a060405180830381865afa15801561012e573d6000803e3d6000fd5b505050506040513d601f19601f8201168201806040525081019061015291906103f4565b5050509150506402540be40081610169919061049e565b915050919050565b60008061017d836100e0565b90506000670de0b6b3a764000085836101969190610516565b6101a09190610587565b9050809250505092915050565b60008173ffffffffffffffffffffffffffffffffffffffff166354fd4d506040518163ffffffff1660e01b8152600401602060405180830381865afa1580156101fa573d6000803e3d6000fd5b505050506040513d601f19601f8201168201806040525081019061021e91906105b8565b9050919050565b600080fd5b600073ffffffffffffffffffffffffffffffffffffffff82169050919050565b60006102558261022a565b9050919050565b60006102678261024a565b9050919050565b6102778161025c565b811461028257600080fd5b50565b6000813590506102948161026e565b92915050565b6000602082840312156102b0576102af610225565b5b60006102be84828501610285565b91505092915050565b6000819050919050565b6102da816102c7565b82525050565b60006020820190506102f560008301846102d1565b92915050565b610304816102c7565b811461030f57600080fd5b50565b600081359050610321816102fb565b92915050565b6000806040838503121561033e5761033d610225565b5b600061034c85828601610312565b925050602061035d85828601610285565b9150509250929050565b600069ffffffffffffffffffff82169050919050565b61038681610367565b811461039157600080fd5b50565b6000815190506103a38161037d565b92915050565b6000819050919050565b6103bc816103a9565b81146103c757600080fd5b50565b6000815190506103d9816103b3565b92915050565b6000815190506103ee816102fb565b92915050565b600080600080600060a086880312156104105761040f610225565b5b600061041e88828901610394565b955050602061042f888289016103ca565b9450506040610440888289016103df565b9350506060610451888289016103df565b925050608061046288828901610394565b9150509295509295909350565b7f4e487b7100000000000000000000000000000000000000000000000000000000600052601160045260246000fd5b60006104a9826103a9565b91506104b4836103a9565b92508282026104c2816103a9565b91507f800000000000000000000000000000000000000000000000000000000000000084146000841216156104fa576104f961046f565b5b828205841483151761050f5761050e61046f565b5b5092915050565b6000610521826102c7565b915061052c836102c7565b925082820261053a816102c7565b915082820484148315176105515761055061046f565b5b5092915050565b7f4e487b7100000000000000000000000000000000000000000000000000000000600052601260045260246000fd5b6000610592826102c7565b915061059d836102c7565b9250826105ad576105ac610558565b5b828204905092915050565b6000602082840312156105ce576105cd610225565b5b60006105dc848285016103df565b9150509291505056fea26469706673582212201c118427d081a182635c760b44e8d9e85e20855eefa077872324bde85d32a0db64736f6c63430008180033",
  "devdoc": {
    "kind": "dev",
    "methods": {},
    "version": 1
  },
  "userdoc": {
    "kind": "user",
    "methods": {},
    "version": 1
  },
  "storageLayout": {
    "storage": [],
    "types": null
  }
}